{
	"contracts/notbitcoin.sol": {
		"notbitcoin": {
			"abi": [
				{
					"inputs": [
						{
							"internalType": "uint128",
							"name": "userInput",
							"type": "uint128"
						},
						{
							"internalType": "string",
							"name": "_notbitcoin",
							"type": "string"
						}
					],
					"stateMutability": "nonpayable",
					"type": "constructor"
				},
				{
					"inputs": [],
					"name": "Profit",
					"outputs": [
						{
							"internalType": "uint128",
							"name": "",
							"type": "uint128"
						}
					],
					"stateMutability": "view",
					"type": "function"
				},
				{
					"inputs": [],
					"name": "buy",
					"outputs": [],
					"stateMutability": "nonpayable",
					"type": "function"
				},
				{
					"inputs": [],
					"name": "discount",
					"outputs": [
						{
							"internalType": "uint128",
							"name": "",
							"type": "uint128"
						}
					],
					"stateMutability": "view",
					"type": "function"
				},
				{
					"inputs": [],
					"name": "discounts",
					"outputs": [
						{
							"internalType": "uint128",
							"name": "",
							"type": "uint128"
						}
					],
					"stateMutability": "nonpayable",
					"type": "function"
				},
				{
					"inputs": [],
					"name": "refund",
					"outputs": [],
					"stateMutability": "nonpayable",
					"type": "function"
				},
				{
					"inputs": [],
					"name": "viewProfits",
					"outputs": [
						{
							"internalType": "uint128",
							"name": "",
							"type": "uint128"
						}
					],
					"stateMutability": "view",
					"type": "function"
				}
			],
			"devdoc": {
				"kind": "dev",
				"methods": {},
				"version": 1
			},
			"evm": {
				"assembly": "    /* \"contracts/notbitcoin.sol\":34:587  contract notbitcoin {... */\n  mstore(0x40, 0x80)\n    /* \"contracts/notbitcoin.sol\":136:140  1500 */\n  0x05dc\n    /* \"contracts/notbitcoin.sol\":110:140  uint128 public discount = 1500 */\n  0x01\n  exp(0x0100, 0x10)\n  dup2\n  sload\n  dup2\n  0xffffffffffffffffffffffffffffffff\n  mul\n  not\n  and\n  swap1\n  dup4\n  0xffffffffffffffffffffffffffffffff\n  and\n  mul\n  or\n  swap1\n  sstore\n  pop\n    /* \"contracts/notbitcoin.sol\":147:275  constructor(uint128 userInput, string memory _notbitcoin) {... */\n  callvalue\n  dup1\n  iszero\n  tag_1\n  jumpi\n  0x00\n  dup1\n  revert\ntag_1:\n  pop\n  mload(0x40)\n  sub(codesize, bytecodeSize)\n  dup1\n  bytecodeSize\n  dup4\n  codecopy\n  dup2\n  dup2\n  add\n  0x40\n  mstore\n  dup2\n  add\n  swap1\n  tag_2\n  swap2\n  swap1\n  tag_3\n  jump\t// in\ntag_2:\n    /* \"contracts/notbitcoin.sol\":224:233  userInput */\n  dup2\n    /* \"contracts/notbitcoin.sol\":215:221  Profit */\n  0x01\n  0x00\n    /* \"contracts/notbitcoin.sol\":215:233  Profit = userInput */\n  0x0100\n  exp\n  dup2\n  sload\n  dup2\n  0xffffffffffffffffffffffffffffffff\n  mul\n  not\n  and\n  swap1\n  dup4\n  0xffffffffffffffffffffffffffffffff\n  and\n  mul\n  or\n  swap1\n  sstore\n  pop\n    /* \"contracts/notbitcoin.sol\":256:267  _notbitcoin */\n  dup1\n    /* \"contracts/notbitcoin.sol\":243:253  notbitcoin */\n  0x00\n    /* \"contracts/notbitcoin.sol\":243:267  notbitcoin = _notbitcoin */\n  swap1\n  dup1\n  mload\n  swap1\n  0x20\n  add\n  swap1\n  tag_6\n  swap3\n  swap2\n  swap1\n  tag_7\n  jump\t// in\ntag_6:\n  pop\n    /* \"contracts/notbitcoin.sol\":147:275  constructor(uint128 userInput, string memory _notbitcoin) {... */\n  pop\n  pop\n    /* \"contracts/notbitcoin.sol\":34:587  contract notbitcoin {... */\n  jump(tag_8)\ntag_7:\n  dup3\n  dup1\n  sload\n  tag_9\n  swap1\n  tag_10\n  jump\t// in\ntag_9:\n  swap1\n  0x00\n  mstore\n  keccak256(0x00, 0x20)\n  swap1\n  0x1f\n  add\n  0x20\n  swap1\n  div\n  dup2\n  add\n  swap3\n  dup3\n  tag_12\n  jumpi\n  0x00\n  dup6\n  sstore\n  jump(tag_11)\ntag_12:\n  dup3\n  0x1f\n  lt\n  tag_13\n  jumpi\n  dup1\n  mload\n  not(0xff)\n  and\n  dup4\n  dup1\n  add\n  or\n  dup6\n  sstore\n  jump(tag_11)\ntag_13:\n  dup3\n  dup1\n  add\n  0x01\n  add\n  dup6\n  sstore\n  dup3\n  iszero\n  tag_11\n  jumpi\n  swap2\n  dup3\n  add\ntag_14:\n  dup3\n  dup2\n  gt\n  iszero\n  tag_15\n  jumpi\n  dup3\n  mload\n  dup3\n  sstore\n  swap2\n  0x20\n  add\n  swap2\n  swap1\n  0x01\n  add\n  swap1\n  jump(tag_14)\ntag_15:\ntag_11:\n  pop\n  swap1\n  pop\n  tag_16\n  swap2\n  swap1\n  tag_17\n  jump\t// in\ntag_16:\n  pop\n  swap1\n  jump\t// out\ntag_17:\ntag_18:\n  dup1\n  dup3\n  gt\n  iszero\n  tag_19\n  jumpi\n  0x00\n  dup2\n  0x00\n  swap1\n  sstore\n  pop\n  0x01\n  add\n  jump(tag_18)\ntag_19:\n  pop\n  swap1\n  jump\t// out\n    /* \"#utility.yul\":7:428   */\ntag_21:\n    /* \"#utility.yul\":96:101   */\n  0x00\n    /* \"#utility.yul\":121:187   */\n  tag_23\n    /* \"#utility.yul\":137:186   */\n  tag_24\n    /* \"#utility.yul\":179:185   */\n  dup5\n    /* \"#utility.yul\":137:186   */\n  tag_25\n  jump\t// in\ntag_24:\n    /* \"#utility.yul\":121:187   */\n  tag_26\n  jump\t// in\ntag_23:\n    /* \"#utility.yul\":112:187   */\n  swap1\n  pop\n    /* \"#utility.yul\":210:216   */\n  dup3\n    /* \"#utility.yul\":203:208   */\n  dup2\n    /* \"#utility.yul\":196:217   */\n  mstore\n    /* \"#utility.yul\":248:252   */\n  0x20\n    /* \"#utility.yul\":241:246   */\n  dup2\n    /* \"#utility.yul\":237:253   */\n  add\n    /* \"#utility.yul\":286:289   */\n  dup5\n    /* \"#utility.yul\":277:283   */\n  dup5\n    /* \"#utility.yul\":272:275   */\n  dup5\n    /* \"#utility.yul\":268:284   */\n  add\n    /* \"#utility.yul\":265:290   */\n  gt\n    /* \"#utility.yul\":262:374   */\n  iszero\n  tag_27\n  jumpi\n    /* \"#utility.yul\":293:372   */\n  tag_28\n  tag_29\n  jump\t// in\ntag_28:\n    /* \"#utility.yul\":262:374   */\ntag_27:\n    /* \"#utility.yul\":383:422   */\n  tag_30\n    /* \"#utility.yul\":415:421   */\n  dup5\n    /* \"#utility.yul\":410:413   */\n  dup3\n    /* \"#utility.yul\":405:408   */\n  dup6\n    /* \"#utility.yul\":383:422   */\n  tag_31\n  jump\t// in\ntag_30:\n    /* \"#utility.yul\":102:428   */\n  pop\n    /* \"#utility.yul\":7:428   */\n  swap4\n  swap3\n  pop\n  pop\n  pop\n  jump\t// out\n    /* \"#utility.yul\":448:803   */\ntag_32:\n    /* \"#utility.yul\":515:520   */\n  0x00\n    /* \"#utility.yul\":564:567   */\n  dup3\n    /* \"#utility.yul\":557:561   */\n  0x1f\n    /* \"#utility.yul\":549:555   */\n  dup4\n    /* \"#utility.yul\":545:562   */\n  add\n    /* \"#utility.yul\":541:568   */\n  slt\n    /* \"#utility.yul\":531:653   */\n  tag_34\n  jumpi\n    /* \"#utility.yul\":572:651   */\n  tag_35\n  tag_36\n  jump\t// in\ntag_35:\n    /* \"#utility.yul\":531:653   */\ntag_34:\n    /* \"#utility.yul\":682:688   */\n  dup2\n    /* \"#utility.yul\":676:689   */\n  mload\n    /* \"#utility.yul\":707:797   */\n  tag_37\n    /* \"#utility.yul\":793:796   */\n  dup5\n    /* \"#utility.yul\":785:791   */\n  dup3\n    /* \"#utility.yul\":778:782   */\n  0x20\n    /* \"#utility.yul\":770:776   */\n  dup7\n    /* \"#utility.yul\":766:783   */\n  add\n    /* \"#utility.yul\":707:797   */\n  tag_21\n  jump\t// in\ntag_37:\n    /* \"#utility.yul\":698:797   */\n  swap2\n  pop\n    /* \"#utility.yul\":521:803   */\n  pop\n    /* \"#utility.yul\":448:803   */\n  swap3\n  swap2\n  pop\n  pop\n  jump\t// out\n    /* \"#utility.yul\":809:952   */\ntag_38:\n    /* \"#utility.yul\":866:871   */\n  0x00\n    /* \"#utility.yul\":897:903   */\n  dup2\n    /* \"#utility.yul\":891:904   */\n  mload\n    /* \"#utility.yul\":882:904   */\n  swap1\n  pop\n    /* \"#utility.yul\":913:946   */\n  tag_40\n    /* \"#utility.yul\":940:945   */\n  dup2\n    /* \"#utility.yul\":913:946   */\n  tag_41\n  jump\t// in\ntag_40:\n    /* \"#utility.yul\":809:952   */\n  swap3\n  swap2\n  pop\n  pop\n  jump\t// out\n    /* \"#utility.yul\":958:1638   */\ntag_3:\n    /* \"#utility.yul\":1047:1053   */\n  0x00\n    /* \"#utility.yul\":1055:1061   */\n  dup1\n    /* \"#utility.yul\":1104:1106   */\n  0x40\n    /* \"#utility.yul\":1092:1101   */\n  dup4\n    /* \"#utility.yul\":1083:1090   */\n  dup6\n    /* \"#utility.yul\":1079:1102   */\n  sub\n    /* \"#utility.yul\":1075:1107   */\n  slt\n    /* \"#utility.yul\":1072:1191   */\n  iszero\n  tag_43\n  jumpi\n    /* \"#utility.yul\":1110:1189   */\n  tag_44\n  tag_45\n  jump\t// in\ntag_44:\n    /* \"#utility.yul\":1072:1191   */\ntag_43:\n    /* \"#utility.yul\":1230:1231   */\n  0x00\n    /* \"#utility.yul\":1255:1319   */\n  tag_46\n    /* \"#utility.yul\":1311:1318   */\n  dup6\n    /* \"#utility.yul\":1302:1308   */\n  dup3\n    /* \"#utility.yul\":1291:1300   */\n  dup7\n    /* \"#utility.yul\":1287:1309   */\n  add\n    /* \"#utility.yul\":1255:1319   */\n  tag_38\n  jump\t// in\ntag_46:\n    /* \"#utility.yul\":1245:1319   */\n  swap3\n  pop\n    /* \"#utility.yul\":1201:1329   */\n  pop\n    /* \"#utility.yul\":1389:1391   */\n  0x20\n    /* \"#utility.yul\":1378:1387   */\n  dup4\n    /* \"#utility.yul\":1374:1392   */\n  add\n    /* \"#utility.yul\":1368:1393   */\n  mload\n    /* \"#utility.yul\":1420:1438   */\n  0xffffffffffffffff\n    /* \"#utility.yul\":1412:1418   */\n  dup2\n    /* \"#utility.yul\":1409:1439   */\n  gt\n    /* \"#utility.yul\":1406:1523   */\n  iszero\n  tag_47\n  jumpi\n    /* \"#utility.yul\":1442:1521   */\n  tag_48\n  tag_49\n  jump\t// in\ntag_48:\n    /* \"#utility.yul\":1406:1523   */\ntag_47:\n    /* \"#utility.yul\":1547:1621   */\n  tag_50\n    /* \"#utility.yul\":1613:1620   */\n  dup6\n    /* \"#utility.yul\":1604:1610   */\n  dup3\n    /* \"#utility.yul\":1593:1602   */\n  dup7\n    /* \"#utility.yul\":1589:1611   */\n  add\n    /* \"#utility.yul\":1547:1621   */\n  tag_32\n  jump\t// in\ntag_50:\n    /* \"#utility.yul\":1537:1621   */\n  swap2\n  pop\n    /* \"#utility.yul\":1339:1631   */\n  pop\n    /* \"#utility.yul\":958:1638   */\n  swap3\n  pop\n  swap3\n  swap1\n  pop\n  jump\t// out\n    /* \"#utility.yul\":1644:1773   */\ntag_26:\n    /* \"#utility.yul\":1678:1684   */\n  0x00\n    /* \"#utility.yul\":1705:1725   */\n  tag_52\n  tag_53\n  jump\t// in\ntag_52:\n    /* \"#utility.yul\":1695:1725   */\n  swap1\n  pop\n    /* \"#utility.yul\":1734:1767   */\n  tag_54\n    /* \"#utility.yul\":1762:1766   */\n  dup3\n    /* \"#utility.yul\":1754:1760   */\n  dup3\n    /* \"#utility.yul\":1734:1767   */\n  tag_55\n  jump\t// in\ntag_54:\n    /* \"#utility.yul\":1644:1773   */\n  swap2\n  swap1\n  pop\n  jump\t// out\n    /* \"#utility.yul\":1779:1854   */\ntag_53:\n    /* \"#utility.yul\":1812:1818   */\n  0x00\n    /* \"#utility.yul\":1845:1847   */\n  0x40\n    /* \"#utility.yul\":1839:1848   */\n  mload\n    /* \"#utility.yul\":1829:1848   */\n  swap1\n  pop\n    /* \"#utility.yul\":1779:1854   */\n  swap1\n  jump\t// out\n    /* \"#utility.yul\":1860:2168   */\ntag_25:\n    /* \"#utility.yul\":1922:1926   */\n  0x00\n    /* \"#utility.yul\":2012:2030   */\n  0xffffffffffffffff\n    /* \"#utility.yul\":2004:2010   */\n  dup3\n    /* \"#utility.yul\":2001:2031   */\n  gt\n    /* \"#utility.yul\":1998:2054   */\n  iszero\n  tag_58\n  jumpi\n    /* \"#utility.yul\":2034:2052   */\n  tag_59\n  tag_60\n  jump\t// in\ntag_59:\n    /* \"#utility.yul\":1998:2054   */\ntag_58:\n    /* \"#utility.yul\":2072:2101   */\n  tag_61\n    /* \"#utility.yul\":2094:2100   */\n  dup3\n    /* \"#utility.yul\":2072:2101   */\n  tag_62\n  jump\t// in\ntag_61:\n    /* \"#utility.yul\":2064:2101   */\n  swap1\n  pop\n    /* \"#utility.yul\":2156:2160   */\n  0x20\n    /* \"#utility.yul\":2150:2154   */\n  dup2\n    /* \"#utility.yul\":2146:2161   */\n  add\n    /* \"#utility.yul\":2138:2161   */\n  swap1\n  pop\n    /* \"#utility.yul\":1860:2168   */\n  swap2\n  swap1\n  pop\n  jump\t// out\n    /* \"#utility.yul\":2174:2292   */\ntag_63:\n    /* \"#utility.yul\":2211:2218   */\n  0x00\n    /* \"#utility.yul\":2251:2285   */\n  0xffffffffffffffffffffffffffffffff\n    /* \"#utility.yul\":2244:2249   */\n  dup3\n    /* \"#utility.yul\":2240:2286   */\n  and\n    /* \"#utility.yul\":2229:2286   */\n  swap1\n  pop\n    /* \"#utility.yul\":2174:2292   */\n  swap2\n  swap1\n  pop\n  jump\t// out\n    /* \"#utility.yul\":2298:2605   */\ntag_31:\n    /* \"#utility.yul\":2366:2367   */\n  0x00\n    /* \"#utility.yul\":2376:2489   */\ntag_66:\n    /* \"#utility.yul\":2390:2396   */\n  dup4\n    /* \"#utility.yul\":2387:2388   */\n  dup2\n    /* \"#utility.yul\":2384:2397   */\n  lt\n    /* \"#utility.yul\":2376:2489   */\n  iszero\n  tag_68\n  jumpi\n    /* \"#utility.yul\":2475:2476   */\n  dup1\n    /* \"#utility.yul\":2470:2473   */\n  dup3\n    /* \"#utility.yul\":2466:2477   */\n  add\n    /* \"#utility.yul\":2460:2478   */\n  mload\n    /* \"#utility.yul\":2456:2457   */\n  dup2\n    /* \"#utility.yul\":2451:2454   */\n  dup5\n    /* \"#utility.yul\":2447:2458   */\n  add\n    /* \"#utility.yul\":2440:2479   */\n  mstore\n    /* \"#utility.yul\":2412:2414   */\n  0x20\n    /* \"#utility.yul\":2409:2410   */\n  dup2\n    /* \"#utility.yul\":2405:2415   */\n  add\n    /* \"#utility.yul\":2400:2415   */\n  swap1\n  pop\n    /* \"#utility.yul\":2376:2489   */\n  jump(tag_66)\ntag_68:\n    /* \"#utility.yul\":2507:2513   */\n  dup4\n    /* \"#utility.yul\":2504:2505   */\n  dup2\n    /* \"#utility.yul\":2501:2514   */\n  gt\n    /* \"#utility.yul\":2498:2599   */\n  iszero\n  tag_69\n  jumpi\n    /* \"#utility.yul\":2587:2588   */\n  0x00\n    /* \"#utility.yul\":2578:2584   */\n  dup5\n    /* \"#utility.yul\":2573:2576   */\n  dup5\n    /* \"#utility.yul\":2569:2585   */\n  add\n    /* \"#utility.yul\":2562:2589   */\n  mstore\n    /* \"#utility.yul\":2498:2599   */\ntag_69:\n    /* \"#utility.yul\":2347:2605   */\n  pop\n    /* \"#utility.yul\":2298:2605   */\n  pop\n  pop\n  pop\n  jump\t// out\n    /* \"#utility.yul\":2611:2931   */\ntag_10:\n    /* \"#utility.yul\":2655:2661   */\n  0x00\n    /* \"#utility.yul\":2692:2693   */\n  0x02\n    /* \"#utility.yul\":2686:2690   */\n  dup3\n    /* \"#utility.yul\":2682:2694   */\n  div\n    /* \"#utility.yul\":2672:2694   */\n  swap1\n  pop\n    /* \"#utility.yul\":2739:2740   */\n  0x01\n    /* \"#utility.yul\":2733:2737   */\n  dup3\n    /* \"#utility.yul\":2729:2741   */\n  and\n    /* \"#utility.yul\":2760:2778   */\n  dup1\n    /* \"#utility.yul\":2750:2831   */\n  tag_71\n  jumpi\n    /* \"#utility.yul\":2816:2820   */\n  0x7f\n    /* \"#utility.yul\":2808:2814   */\n  dup3\n    /* \"#utility.yul\":2804:2821   */\n  and\n    /* \"#utility.yul\":2794:2821   */\n  swap2\n  pop\n    /* \"#utility.yul\":2750:2831   */\ntag_71:\n    /* \"#utility.yul\":2878:2880   */\n  0x20\n    /* \"#utility.yul\":2870:2876   */\n  dup3\n    /* \"#utility.yul\":2867:2881   */\n  lt\n    /* \"#utility.yul\":2847:2865   */\n  dup2\n    /* \"#utility.yul\":2844:2882   */\n  eq\n    /* \"#utility.yul\":2841:2925   */\n  iszero\n  tag_72\n  jumpi\n    /* \"#utility.yul\":2897:2915   */\n  tag_73\n  tag_74\n  jump\t// in\ntag_73:\n    /* \"#utility.yul\":2841:2925   */\ntag_72:\n    /* \"#utility.yul\":2662:2931   */\n  pop\n    /* \"#utility.yul\":2611:2931   */\n  swap2\n  swap1\n  pop\n  jump\t// out\n    /* \"#utility.yul\":2937:3218   */\ntag_55:\n    /* \"#utility.yul\":3020:3047   */\n  tag_76\n    /* \"#utility.yul\":3042:3046   */\n  dup3\n    /* \"#utility.yul\":3020:3047   */\n  tag_62\n  jump\t// in\ntag_76:\n    /* \"#utility.yul\":3012:3018   */\n  dup2\n    /* \"#utility.yul\":3008:3048   */\n  add\n    /* \"#utility.yul\":3150:3156   */\n  dup2\n    /* \"#utility.yul\":3138:3148   */\n  dup2\n    /* \"#utility.yul\":3135:3157   */\n  lt\n    /* \"#utility.yul\":3114:3132   */\n  0xffffffffffffffff\n    /* \"#utility.yul\":3102:3112   */\n  dup3\n    /* \"#utility.yul\":3099:3133   */\n  gt\n    /* \"#utility.yul\":3096:3158   */\n  or\n    /* \"#utility.yul\":3093:3181   */\n  iszero\n  tag_77\n  jumpi\n    /* \"#utility.yul\":3161:3179   */\n  tag_78\n  tag_60\n  jump\t// in\ntag_78:\n    /* \"#utility.yul\":3093:3181   */\ntag_77:\n    /* \"#utility.yul\":3201:3211   */\n  dup1\n    /* \"#utility.yul\":3197:3199   */\n  0x40\n    /* \"#utility.yul\":3190:3212   */\n  mstore\n    /* \"#utility.yul\":2980:3218   */\n  pop\n    /* \"#utility.yul\":2937:3218   */\n  pop\n  pop\n  jump\t// out\n    /* \"#utility.yul\":3224:3404   */\ntag_74:\n    /* \"#utility.yul\":3272:3349   */\n  0x4e487b7100000000000000000000000000000000000000000000000000000000\n    /* \"#utility.yul\":3269:3270   */\n  0x00\n    /* \"#utility.yul\":3262:3350   */\n  mstore\n    /* \"#utility.yul\":3369:3373   */\n  0x22\n    /* \"#utility.yul\":3366:3367   */\n  0x04\n    /* \"#utility.yul\":3359:3374   */\n  mstore\n    /* \"#utility.yul\":3393:3397   */\n  0x24\n    /* \"#utility.yul\":3390:3391   */\n  0x00\n    /* \"#utility.yul\":3383:3398   */\n  revert\n    /* \"#utility.yul\":3410:3590   */\ntag_60:\n    /* \"#utility.yul\":3458:3535   */\n  0x4e487b7100000000000000000000000000000000000000000000000000000000\n    /* \"#utility.yul\":3455:3456   */\n  0x00\n    /* \"#utility.yul\":3448:3536   */\n  mstore\n    /* \"#utility.yul\":3555:3559   */\n  0x41\n    /* \"#utility.yul\":3552:3553   */\n  0x04\n    /* \"#utility.yul\":3545:3560   */\n  mstore\n    /* \"#utility.yul\":3579:3583   */\n  0x24\n    /* \"#utility.yul\":3576:3577   */\n  0x00\n    /* \"#utility.yul\":3569:3584   */\n  revert\n    /* \"#utility.yul\":3596:3713   */\ntag_36:\n    /* \"#utility.yul\":3705:3706   */\n  0x00\n    /* \"#utility.yul\":3702:3703   */\n  dup1\n    /* \"#utility.yul\":3695:3707   */\n  revert\n    /* \"#utility.yul\":3719:3836   */\ntag_29:\n    /* \"#utility.yul\":3828:3829   */\n  0x00\n    /* \"#utility.yul\":3825:3826   */\n  dup1\n    /* \"#utility.yul\":3818:3830   */\n  revert\n    /* \"#utility.yul\":3842:3959   */\ntag_49:\n    /* \"#utility.yul\":3951:3952   */\n  0x00\n    /* \"#utility.yul\":3948:3949   */\n  dup1\n    /* \"#utility.yul\":3941:3953   */\n  revert\n    /* \"#utility.yul\":3965:4082   */\ntag_45:\n    /* \"#utility.yul\":4074:4075   */\n  0x00\n    /* \"#utility.yul\":4071:4072   */\n  dup1\n    /* \"#utility.yul\":4064:4076   */\n  revert\n    /* \"#utility.yul\":4088:4190   */\ntag_62:\n    /* \"#utility.yul\":4129:4135   */\n  0x00\n    /* \"#utility.yul\":4180:4182   */\n  0x1f\n    /* \"#utility.yul\":4176:4183   */\n  not\n    /* \"#utility.yul\":4171:4173   */\n  0x1f\n    /* \"#utility.yul\":4164:4169   */\n  dup4\n    /* \"#utility.yul\":4160:4174   */\n  add\n    /* \"#utility.yul\":4156:4184   */\n  and\n    /* \"#utility.yul\":4146:4184   */\n  swap1\n  pop\n    /* \"#utility.yul\":4088:4190   */\n  swap2\n  swap1\n  pop\n  jump\t// out\n    /* \"#utility.yul\":4196:4318   */\ntag_41:\n    /* \"#utility.yul\":4269:4293   */\n  tag_87\n    /* \"#utility.yul\":4287:4292   */\n  dup2\n    /* \"#utility.yul\":4269:4293   */\n  tag_63\n  jump\t// in\ntag_87:\n    /* \"#utility.yul\":4262:4267   */\n  dup2\n    /* \"#utility.yul\":4259:4294   */\n  eq\n    /* \"#utility.yul\":4249:4312   */\n  tag_88\n  jumpi\n    /* \"#utility.yul\":4308:4309   */\n  0x00\n    /* \"#utility.yul\":4305:4306   */\n  dup1\n    /* \"#utility.yul\":4298:4310   */\n  revert\n    /* \"#utility.yul\":4249:4312   */\ntag_88:\n    /* \"#utility.yul\":4196:4318   */\n  pop\n  jump\t// out\n    /* \"contracts/notbitcoin.sol\":34:587  contract notbitcoin {... */\ntag_8:\n  dataSize(sub_0)\n  dup1\n  dataOffset(sub_0)\n  0x00\n  codecopy\n  0x00\n  return\nstop\n\nsub_0: assembly {\n        /* \"contracts/notbitcoin.sol\":34:587  contract notbitcoin {... */\n      mstore(0x40, 0x80)\n      callvalue\n      dup1\n      iszero\n      tag_1\n      jumpi\n      0x00\n      dup1\n      revert\n    tag_1:\n      pop\n      jumpi(tag_2, lt(calldatasize, 0x04))\n      shr(0xe0, calldataload(0x00))\n      dup1\n      0x438e65cf\n      eq\n      tag_3\n      jumpi\n      dup1\n      0x590e1ae3\n      eq\n      tag_4\n      jumpi\n      dup1\n      0x699e5b6d\n      eq\n      tag_5\n      jumpi\n      dup1\n      0x6b6f4a9d\n      eq\n      tag_6\n      jumpi\n      dup1\n      0x75af65d1\n      eq\n      tag_7\n      jumpi\n      dup1\n      0xa6f2ae3a\n      eq\n      tag_8\n      jumpi\n    tag_2:\n      0x00\n      dup1\n      revert\n        /* \"contracts/notbitcoin.sol\":281:359  function viewProfits() public view returns (uint128){... */\n    tag_3:\n      tag_9\n      tag_10\n      jump\t// in\n    tag_9:\n      mload(0x40)\n      tag_11\n      swap2\n      swap1\n      tag_12\n      jump\t// in\n    tag_11:\n      mload(0x40)\n      dup1\n      swap2\n      sub\n      swap1\n      return\n        /* \"contracts/notbitcoin.sol\":422:476  function refund() public {... */\n    tag_4:\n      tag_13\n      tag_14\n      jump\t// in\n    tag_13:\n      stop\n        /* \"contracts/notbitcoin.sol\":83:104  uint128 public Profit */\n    tag_5:\n      tag_15\n      tag_16\n      jump\t// in\n    tag_15:\n      mload(0x40)\n      tag_17\n      swap2\n      swap1\n      tag_12\n      jump\t// in\n    tag_17:\n      mload(0x40)\n      dup1\n      swap2\n      sub\n      swap1\n      return\n        /* \"contracts/notbitcoin.sol\":110:140  uint128 public discount = 1500 */\n    tag_6:\n      tag_18\n      tag_19\n      jump\t// in\n    tag_18:\n      mload(0x40)\n      tag_20\n      swap2\n      swap1\n      tag_12\n      jump\t// in\n    tag_20:\n      mload(0x40)\n      dup1\n      swap2\n      sub\n      swap1\n      return\n        /* \"contracts/notbitcoin.sol\":482:585  function discounts() public returns(uint128){... */\n    tag_7:\n      tag_21\n      tag_22\n      jump\t// in\n    tag_21:\n      mload(0x40)\n      tag_23\n      swap2\n      swap1\n      tag_12\n      jump\t// in\n    tag_23:\n      mload(0x40)\n      dup1\n      swap2\n      sub\n      swap1\n      return\n        /* \"contracts/notbitcoin.sol\":365:415  function buy() public {... */\n    tag_8:\n      tag_24\n      tag_25\n      jump\t// in\n    tag_24:\n      stop\n        /* \"contracts/notbitcoin.sol\":281:359  function viewProfits() public view returns (uint128){... */\n    tag_10:\n        /* \"contracts/notbitcoin.sol\":325:332  uint128 */\n      0x00\n        /* \"contracts/notbitcoin.sol\":348:354  Profit */\n      0x01\n      0x00\n      swap1\n      sload\n      swap1\n      0x0100\n      exp\n      swap1\n      div\n      0xffffffffffffffffffffffffffffffff\n      and\n        /* \"contracts/notbitcoin.sol\":341:354  return Profit */\n      swap1\n      pop\n        /* \"contracts/notbitcoin.sol\":281:359  function viewProfits() public view returns (uint128){... */\n      swap1\n      jump\t// out\n        /* \"contracts/notbitcoin.sol\":422:476  function refund() public {... */\n    tag_14:\n        /* \"contracts/notbitcoin.sol\":468:469  1 */\n      0x01\n        /* \"contracts/notbitcoin.sol\":458:464  Profit */\n      dup1\n      0x00\n        /* \"contracts/notbitcoin.sol\":458:469  Profit -= 1 */\n      dup3\n      dup3\n      dup3\n      swap1\n      sload\n      swap1\n      0x0100\n      exp\n      swap1\n      div\n      0xffffffffffffffffffffffffffffffff\n      and\n      tag_28\n      swap2\n      swap1\n      tag_29\n      jump\t// in\n    tag_28:\n      swap3\n      pop\n      0x0100\n      exp\n      dup2\n      sload\n      dup2\n      0xffffffffffffffffffffffffffffffff\n      mul\n      not\n      and\n      swap1\n      dup4\n      0xffffffffffffffffffffffffffffffff\n      and\n      mul\n      or\n      swap1\n      sstore\n      pop\n        /* \"contracts/notbitcoin.sol\":422:476  function refund() public {... */\n      jump\t// out\n        /* \"contracts/notbitcoin.sol\":83:104  uint128 public Profit */\n    tag_16:\n      0x01\n      0x00\n      swap1\n      sload\n      swap1\n      0x0100\n      exp\n      swap1\n      div\n      0xffffffffffffffffffffffffffffffff\n      and\n      dup2\n      jump\t// out\n        /* \"contracts/notbitcoin.sol\":110:140  uint128 public discount = 1500 */\n    tag_19:\n      0x01\n      0x10\n      swap1\n      sload\n      swap1\n      0x0100\n      exp\n      swap1\n      div\n      0xffffffffffffffffffffffffffffffff\n      and\n      dup2\n      jump\t// out\n        /* \"contracts/notbitcoin.sol\":482:585  function discounts() public returns(uint128){... */\n    tag_22:\n        /* \"contracts/notbitcoin.sol\":518:525  uint128 */\n      0x00\n        /* \"contracts/notbitcoin.sol\":572:577  10000 */\n      0x2710\n        /* \"contracts/notbitcoin.sol\":560:568  discount */\n      0x01\n      0x10\n      swap1\n      sload\n      swap1\n      0x0100\n      exp\n      swap1\n      div\n      0xffffffffffffffffffffffffffffffff\n      and\n        /* \"contracts/notbitcoin.sol\":551:557  Profit */\n      0x01\n      0x00\n      swap1\n      sload\n      swap1\n      0x0100\n      exp\n      swap1\n      div\n      0xffffffffffffffffffffffffffffffff\n      and\n        /* \"contracts/notbitcoin.sol\":551:568  Profit * discount */\n      tag_31\n      swap2\n      swap1\n      tag_32\n      jump\t// in\n    tag_31:\n        /* \"contracts/notbitcoin.sol\":550:577  (Profit * discount) / 10000 */\n      tag_33\n      swap2\n      swap1\n      tag_34\n      jump\t// in\n    tag_33:\n        /* \"contracts/notbitcoin.sol\":539:545  Profit */\n      0x01\n      0x00\n        /* \"contracts/notbitcoin.sol\":539:578  Profit -= ((Profit * discount) / 10000) */\n      dup3\n      dup3\n      dup3\n      swap1\n      sload\n      swap1\n      0x0100\n      exp\n      swap1\n      div\n      0xffffffffffffffffffffffffffffffff\n      and\n      tag_35\n      swap2\n      swap1\n      tag_29\n      jump\t// in\n    tag_35:\n      swap3\n      pop\n      0x0100\n      exp\n      dup2\n      sload\n      dup2\n      0xffffffffffffffffffffffffffffffff\n      mul\n      not\n      and\n      swap1\n      dup4\n      0xffffffffffffffffffffffffffffffff\n      and\n      mul\n      or\n      swap1\n      sstore\n        /* \"contracts/notbitcoin.sol\":532:578  return Profit -= ((Profit * discount) / 10000) */\n      swap1\n      pop\n        /* \"contracts/notbitcoin.sol\":482:585  function discounts() public returns(uint128){... */\n      swap1\n      jump\t// out\n        /* \"contracts/notbitcoin.sol\":365:415  function buy() public {... */\n    tag_25:\n        /* \"contracts/notbitcoin.sol\":407:408  1 */\n      0x01\n        /* \"contracts/notbitcoin.sol\":397:403  Profit */\n      dup1\n      0x00\n        /* \"contracts/notbitcoin.sol\":397:408  Profit += 1 */\n      dup3\n      dup3\n      dup3\n      swap1\n      sload\n      swap1\n      0x0100\n      exp\n      swap1\n      div\n      0xffffffffffffffffffffffffffffffff\n      and\n      tag_37\n      swap2\n      swap1\n      tag_38\n      jump\t// in\n    tag_37:\n      swap3\n      pop\n      0x0100\n      exp\n      dup2\n      sload\n      dup2\n      0xffffffffffffffffffffffffffffffff\n      mul\n      not\n      and\n      swap1\n      dup4\n      0xffffffffffffffffffffffffffffffff\n      and\n      mul\n      or\n      swap1\n      sstore\n      pop\n        /* \"contracts/notbitcoin.sol\":365:415  function buy() public {... */\n      jump\t// out\n        /* \"#utility.yul\":7:125   */\n    tag_40:\n        /* \"#utility.yul\":94:118   */\n      tag_42\n        /* \"#utility.yul\":112:117   */\n      dup2\n        /* \"#utility.yul\":94:118   */\n      tag_43\n      jump\t// in\n    tag_42:\n        /* \"#utility.yul\":89:92   */\n      dup3\n        /* \"#utility.yul\":82:119   */\n      mstore\n        /* \"#utility.yul\":7:125   */\n      pop\n      pop\n      jump\t// out\n        /* \"#utility.yul\":131:353   */\n    tag_12:\n        /* \"#utility.yul\":224:228   */\n      0x00\n        /* \"#utility.yul\":262:264   */\n      0x20\n        /* \"#utility.yul\":251:260   */\n      dup3\n        /* \"#utility.yul\":247:265   */\n      add\n        /* \"#utility.yul\":239:265   */\n      swap1\n      pop\n        /* \"#utility.yul\":275:346   */\n      tag_45\n        /* \"#utility.yul\":343:344   */\n      0x00\n        /* \"#utility.yul\":332:341   */\n      dup4\n        /* \"#utility.yul\":328:345   */\n      add\n        /* \"#utility.yul\":319:325   */\n      dup5\n        /* \"#utility.yul\":275:346   */\n      tag_40\n      jump\t// in\n    tag_45:\n        /* \"#utility.yul\":131:353   */\n      swap3\n      swap2\n      pop\n      pop\n      jump\t// out\n        /* \"#utility.yul\":359:632   */\n    tag_38:\n        /* \"#utility.yul\":399:402   */\n      0x00\n        /* \"#utility.yul\":418:438   */\n      tag_47\n        /* \"#utility.yul\":436:437   */\n      dup3\n        /* \"#utility.yul\":418:438   */\n      tag_43\n      jump\t// in\n    tag_47:\n        /* \"#utility.yul\":413:438   */\n      swap2\n      pop\n        /* \"#utility.yul\":452:472   */\n      tag_48\n        /* \"#utility.yul\":470:471   */\n      dup4\n        /* \"#utility.yul\":452:472   */\n      tag_43\n      jump\t// in\n    tag_48:\n        /* \"#utility.yul\":447:472   */\n      swap3\n      pop\n        /* \"#utility.yul\":574:575   */\n      dup3\n        /* \"#utility.yul\":538:572   */\n      0xffffffffffffffffffffffffffffffff\n        /* \"#utility.yul\":534:576   */\n      sub\n        /* \"#utility.yul\":531:532   */\n      dup3\n        /* \"#utility.yul\":528:577   */\n      gt\n        /* \"#utility.yul\":525:600   */\n      iszero\n      tag_49\n      jumpi\n        /* \"#utility.yul\":580:598   */\n      tag_50\n      tag_51\n      jump\t// in\n    tag_50:\n        /* \"#utility.yul\":525:600   */\n    tag_49:\n        /* \"#utility.yul\":624:625   */\n      dup3\n        /* \"#utility.yul\":621:622   */\n      dup3\n        /* \"#utility.yul\":617:626   */\n      add\n        /* \"#utility.yul\":610:626   */\n      swap1\n      pop\n        /* \"#utility.yul\":359:632   */\n      swap3\n      swap2\n      pop\n      pop\n      jump\t// out\n        /* \"#utility.yul\":638:823   */\n    tag_34:\n        /* \"#utility.yul\":678:679   */\n      0x00\n        /* \"#utility.yul\":695:715   */\n      tag_53\n        /* \"#utility.yul\":713:714   */\n      dup3\n        /* \"#utility.yul\":695:715   */\n      tag_43\n      jump\t// in\n    tag_53:\n        /* \"#utility.yul\":690:715   */\n      swap2\n      pop\n        /* \"#utility.yul\":729:749   */\n      tag_54\n        /* \"#utility.yul\":747:748   */\n      dup4\n        /* \"#utility.yul\":729:749   */\n      tag_43\n      jump\t// in\n    tag_54:\n        /* \"#utility.yul\":724:749   */\n      swap3\n      pop\n        /* \"#utility.yul\":768:769   */\n      dup3\n        /* \"#utility.yul\":758:793   */\n      tag_55\n      jumpi\n        /* \"#utility.yul\":773:791   */\n      tag_56\n      tag_57\n      jump\t// in\n    tag_56:\n        /* \"#utility.yul\":758:793   */\n    tag_55:\n        /* \"#utility.yul\":815:816   */\n      dup3\n        /* \"#utility.yul\":812:813   */\n      dup3\n        /* \"#utility.yul\":808:817   */\n      div\n        /* \"#utility.yul\":803:817   */\n      swap1\n      pop\n        /* \"#utility.yul\":638:823   */\n      swap3\n      swap2\n      pop\n      pop\n      jump\t// out\n        /* \"#utility.yul\":829:1145   */\n    tag_32:\n        /* \"#utility.yul\":869:876   */\n      0x00\n        /* \"#utility.yul\":892:912   */\n      tag_59\n        /* \"#utility.yul\":910:911   */\n      dup3\n        /* \"#utility.yul\":892:912   */\n      tag_43\n      jump\t// in\n    tag_59:\n        /* \"#utility.yul\":887:912   */\n      swap2\n      pop\n        /* \"#utility.yul\":926:946   */\n      tag_60\n        /* \"#utility.yul\":944:945   */\n      dup4\n        /* \"#utility.yul\":926:946   */\n      tag_43\n      jump\t// in\n    tag_60:\n        /* \"#utility.yul\":921:946   */\n      swap3\n      pop\n        /* \"#utility.yul\":1082:1083   */\n      dup2\n        /* \"#utility.yul\":1046:1080   */\n      0xffffffffffffffffffffffffffffffff\n        /* \"#utility.yul\":1042:1084   */\n      div\n        /* \"#utility.yul\":1039:1040   */\n      dup4\n        /* \"#utility.yul\":1036:1085   */\n      gt\n        /* \"#utility.yul\":1031:1032   */\n      dup3\n        /* \"#utility.yul\":1024:1033   */\n      iszero\n        /* \"#utility.yul\":1017:1034   */\n      iszero\n        /* \"#utility.yul\":1013:1086   */\n      and\n        /* \"#utility.yul\":1010:1109   */\n      iszero\n      tag_61\n      jumpi\n        /* \"#utility.yul\":1089:1107   */\n      tag_62\n      tag_51\n      jump\t// in\n    tag_62:\n        /* \"#utility.yul\":1010:1109   */\n    tag_61:\n        /* \"#utility.yul\":1137:1138   */\n      dup3\n        /* \"#utility.yul\":1134:1135   */\n      dup3\n        /* \"#utility.yul\":1130:1139   */\n      mul\n        /* \"#utility.yul\":1119:1139   */\n      swap1\n      pop\n        /* \"#utility.yul\":829:1145   */\n      swap3\n      swap2\n      pop\n      pop\n      jump\t// out\n        /* \"#utility.yul\":1151:1342   */\n    tag_29:\n        /* \"#utility.yul\":1191:1195   */\n      0x00\n        /* \"#utility.yul\":1211:1231   */\n      tag_64\n        /* \"#utility.yul\":1229:1230   */\n      dup3\n        /* \"#utility.yul\":1211:1231   */\n      tag_43\n      jump\t// in\n    tag_64:\n        /* \"#utility.yul\":1206:1231   */\n      swap2\n      pop\n        /* \"#utility.yul\":1245:1265   */\n      tag_65\n        /* \"#utility.yul\":1263:1264   */\n      dup4\n        /* \"#utility.yul\":1245:1265   */\n      tag_43\n      jump\t// in\n    tag_65:\n        /* \"#utility.yul\":1240:1265   */\n      swap3\n      pop\n        /* \"#utility.yul\":1284:1285   */\n      dup3\n        /* \"#utility.yul\":1281:1282   */\n      dup3\n        /* \"#utility.yul\":1278:1286   */\n      lt\n        /* \"#utility.yul\":1275:1309   */\n      iszero\n      tag_66\n      jumpi\n        /* \"#utility.yul\":1289:1307   */\n      tag_67\n      tag_51\n      jump\t// in\n    tag_67:\n        /* \"#utility.yul\":1275:1309   */\n    tag_66:\n        /* \"#utility.yul\":1334:1335   */\n      dup3\n        /* \"#utility.yul\":1331:1332   */\n      dup3\n        /* \"#utility.yul\":1327:1336   */\n      sub\n        /* \"#utility.yul\":1319:1336   */\n      swap1\n      pop\n        /* \"#utility.yul\":1151:1342   */\n      swap3\n      swap2\n      pop\n      pop\n      jump\t// out\n        /* \"#utility.yul\":1348:1466   */\n    tag_43:\n        /* \"#utility.yul\":1385:1392   */\n      0x00\n        /* \"#utility.yul\":1425:1459   */\n      0xffffffffffffffffffffffffffffffff\n        /* \"#utility.yul\":1418:1423   */\n      dup3\n        /* \"#utility.yul\":1414:1460   */\n      and\n        /* \"#utility.yul\":1403:1460   */\n      swap1\n      pop\n        /* \"#utility.yul\":1348:1466   */\n      swap2\n      swap1\n      pop\n      jump\t// out\n        /* \"#utility.yul\":1472:1652   */\n    tag_51:\n        /* \"#utility.yul\":1520:1597   */\n      0x4e487b7100000000000000000000000000000000000000000000000000000000\n        /* \"#utility.yul\":1517:1518   */\n      0x00\n        /* \"#utility.yul\":1510:1598   */\n      mstore\n        /* \"#utility.yul\":1617:1621   */\n      0x11\n        /* \"#utility.yul\":1614:1615   */\n      0x04\n        /* \"#utility.yul\":1607:1622   */\n      mstore\n        /* \"#utility.yul\":1641:1645   */\n      0x24\n        /* \"#utility.yul\":1638:1639   */\n      0x00\n        /* \"#utility.yul\":1631:1646   */\n      revert\n        /* \"#utility.yul\":1658:1838   */\n    tag_57:\n        /* \"#utility.yul\":1706:1783   */\n      0x4e487b7100000000000000000000000000000000000000000000000000000000\n        /* \"#utility.yul\":1703:1704   */\n      0x00\n        /* \"#utility.yul\":1696:1784   */\n      mstore\n        /* \"#utility.yul\":1803:1807   */\n      0x12\n        /* \"#utility.yul\":1800:1801   */\n      0x04\n        /* \"#utility.yul\":1793:1808   */\n      mstore\n        /* \"#utility.yul\":1827:1831   */\n      0x24\n        /* \"#utility.yul\":1824:1825   */\n      0x00\n        /* \"#utility.yul\":1817:1832   */\n      revert\n\n    auxdata: 0xa2646970667358221220e0688717f068949b4e3fbf532ba84f4adadb6568203140f7669be5e0a8e494a964736f6c63430008070033\n}\n",
				"bytecode": {
					"linkReferences": {},
					"object": "60806040526105dc600160106101000a8154816fffffffffffffffffffffffffffffffff02191690836fffffffffffffffffffffffffffffffff1602179055503480156200004c57600080fd5b50604051620008f4380380620008f4833981810160405281019062000072919062000211565b81600160006101000a8154816fffffffffffffffffffffffffffffffff02191690836fffffffffffffffffffffffffffffffff1602179055508060009080519060200190620000c3929190620000cc565b50505062000431565b828054620000da9062000328565b90600052602060002090601f016020900481019282620000fe57600085556200014a565b82601f106200011957805160ff19168380011785556200014a565b828001600101855582156200014a579182015b82811115620001495782518255916020019190600101906200012c565b5b5090506200015991906200015d565b5090565b5b80821115620001785760008160009055506001016200015e565b5090565b6000620001936200018d84620002a0565b62000277565b905082815260208101848484011115620001b257620001b1620003f7565b5b620001bf848285620002f2565b509392505050565b600082601f830112620001df57620001de620003f2565b5b8151620001f18482602086016200017c565b91505092915050565b6000815190506200020b8162000417565b92915050565b600080604083850312156200022b576200022a62000401565b5b60006200023b85828601620001fa565b925050602083015167ffffffffffffffff8111156200025f576200025e620003fc565b5b6200026d85828601620001c7565b9150509250929050565b60006200028362000296565b90506200029182826200035e565b919050565b6000604051905090565b600067ffffffffffffffff821115620002be57620002bd620003c3565b5b620002c98262000406565b9050602081019050919050565b60006fffffffffffffffffffffffffffffffff82169050919050565b60005b8381101562000312578082015181840152602081019050620002f5565b8381111562000322576000848401525b50505050565b600060028204905060018216806200034157607f821691505b6020821081141562000358576200035762000394565b5b50919050565b620003698262000406565b810181811067ffffffffffffffff821117156200038b576200038a620003c3565b5b80604052505050565b7f4e487b7100000000000000000000000000000000000000000000000000000000600052602260045260246000fd5b7f4e487b7100000000000000000000000000000000000000000000000000000000600052604160045260246000fd5b600080fd5b600080fd5b600080fd5b600080fd5b6000601f19601f8301169050919050565b6200042281620002d6565b81146200042e57600080fd5b50565b6104b380620004416000396000f3fe608060405234801561001057600080fd5b50600436106100625760003560e01c8063438e65cf14610067578063590e1ae314610085578063699e5b6d1461008f5780636b6f4a9d146100ad57806375af65d1146100cb578063a6f2ae3a146100e9575b600080fd5b61006f6100f3565b60405161007c91906102f3565b60405180910390f35b61008d610119565b005b61009761017e565b6040516100a491906102f3565b60405180910390f35b6100b56101a0565b6040516100c291906102f3565b60405180910390f35b6100d36101c2565b6040516100e091906102f3565b60405180910390f35b6100f161027f565b005b6000600160009054906101000a90046fffffffffffffffffffffffffffffffff16905090565b60018060008282829054906101000a90046fffffffffffffffffffffffffffffffff1661014691906103cf565b92506101000a8154816fffffffffffffffffffffffffffffffff02191690836fffffffffffffffffffffffffffffffff160217905550565b600160009054906101000a90046fffffffffffffffffffffffffffffffff1681565b600160109054906101000a90046fffffffffffffffffffffffffffffffff1681565b6000612710600160109054906101000a90046fffffffffffffffffffffffffffffffff16600160009054906101000a90046fffffffffffffffffffffffffffffffff1661020f9190610385565b6102199190610354565b600160008282829054906101000a90046fffffffffffffffffffffffffffffffff1661024591906103cf565b92506101000a8154816fffffffffffffffffffffffffffffffff02191690836fffffffffffffffffffffffffffffffff1602179055905090565b60018060008282829054906101000a90046fffffffffffffffffffffffffffffffff166102ac919061030e565b92506101000a8154816fffffffffffffffffffffffffffffffff02191690836fffffffffffffffffffffffffffffffff160217905550565b6102ed81610403565b82525050565b600060208201905061030860008301846102e4565b92915050565b600061031982610403565b915061032483610403565b9250826fffffffffffffffffffffffffffffffff038211156103495761034861041f565b5b828201905092915050565b600061035f82610403565b915061036a83610403565b92508261037a5761037961044e565b5b828204905092915050565b600061039082610403565b915061039b83610403565b9250816fffffffffffffffffffffffffffffffff04831182151516156103c4576103c361041f565b5b828202905092915050565b60006103da82610403565b91506103e583610403565b9250828210156103f8576103f761041f565b5b828203905092915050565b60006fffffffffffffffffffffffffffffffff82169050919050565b7f4e487b7100000000000000000000000000000000000000000000000000000000600052601160045260246000fd5b7f4e487b7100000000000000000000000000000000000000000000000000000000600052601260045260246000fdfea2646970667358221220e0688717f068949b4e3fbf532ba84f4adadb6568203140f7669be5e0a8e494a964736f6c63430008070033",
					"opcodes": "PUSH1 0x80 PUSH1 0x40 MSTORE PUSH2 0x5DC PUSH1 0x1 PUSH1 0x10 PUSH2 0x100 EXP DUP2 SLOAD DUP2 PUSH16 0xFFFFFFFFFFFFFFFFFFFFFFFFFFFFFFFF MUL NOT AND SWAP1 DUP4 PUSH16 0xFFFFFFFFFFFFFFFFFFFFFFFFFFFFFFFF AND MUL OR SWAP1 SSTORE POP CALLVALUE DUP1 ISZERO PUSH3 0x4C JUMPI PUSH1 0x0 DUP1 REVERT JUMPDEST POP PUSH1 0x40 MLOAD PUSH3 0x8F4 CODESIZE SUB DUP1 PUSH3 0x8F4 DUP4 CODECOPY DUP2 DUP2 ADD PUSH1 0x40 MSTORE DUP2 ADD SWAP1 PUSH3 0x72 SWAP2 SWAP1 PUSH3 0x211 JUMP JUMPDEST DUP2 PUSH1 0x1 PUSH1 0x0 PUSH2 0x100 EXP DUP2 SLOAD DUP2 PUSH16 0xFFFFFFFFFFFFFFFFFFFFFFFFFFFFFFFF MUL NOT AND SWAP1 DUP4 PUSH16 0xFFFFFFFFFFFFFFFFFFFFFFFFFFFFFFFF AND MUL OR SWAP1 SSTORE POP DUP1 PUSH1 0x0 SWAP1 DUP1 MLOAD SWAP1 PUSH1 0x20 ADD SWAP1 PUSH3 0xC3 SWAP3 SWAP2 SWAP1 PUSH3 0xCC JUMP JUMPDEST POP POP POP PUSH3 0x431 JUMP JUMPDEST DUP3 DUP1 SLOAD PUSH3 0xDA SWAP1 PUSH3 0x328 JUMP JUMPDEST SWAP1 PUSH1 0x0 MSTORE PUSH1 0x20 PUSH1 0x0 KECCAK256 SWAP1 PUSH1 0x1F ADD PUSH1 0x20 SWAP1 DIV DUP2 ADD SWAP3 DUP3 PUSH3 0xFE JUMPI PUSH1 0x0 DUP6 SSTORE PUSH3 0x14A JUMP JUMPDEST DUP3 PUSH1 0x1F LT PUSH3 0x119 JUMPI DUP1 MLOAD PUSH1 0xFF NOT AND DUP4 DUP1 ADD OR DUP6 SSTORE PUSH3 0x14A JUMP JUMPDEST DUP3 DUP1 ADD PUSH1 0x1 ADD DUP6 SSTORE DUP3 ISZERO PUSH3 0x14A JUMPI SWAP2 DUP3 ADD JUMPDEST DUP3 DUP2 GT ISZERO PUSH3 0x149 JUMPI DUP3 MLOAD DUP3 SSTORE SWAP2 PUSH1 0x20 ADD SWAP2 SWAP1 PUSH1 0x1 ADD SWAP1 PUSH3 0x12C JUMP JUMPDEST JUMPDEST POP SWAP1 POP PUSH3 0x159 SWAP2 SWAP1 PUSH3 0x15D JUMP JUMPDEST POP SWAP1 JUMP JUMPDEST JUMPDEST DUP1 DUP3 GT ISZERO PUSH3 0x178 JUMPI PUSH1 0x0 DUP2 PUSH1 0x0 SWAP1 SSTORE POP PUSH1 0x1 ADD PUSH3 0x15E JUMP JUMPDEST POP SWAP1 JUMP JUMPDEST PUSH1 0x0 PUSH3 0x193 PUSH3 0x18D DUP5 PUSH3 0x2A0 JUMP JUMPDEST PUSH3 0x277 JUMP JUMPDEST SWAP1 POP DUP3 DUP2 MSTORE PUSH1 0x20 DUP2 ADD DUP5 DUP5 DUP5 ADD GT ISZERO PUSH3 0x1B2 JUMPI PUSH3 0x1B1 PUSH3 0x3F7 JUMP JUMPDEST JUMPDEST PUSH3 0x1BF DUP5 DUP3 DUP6 PUSH3 0x2F2 JUMP JUMPDEST POP SWAP4 SWAP3 POP POP POP JUMP JUMPDEST PUSH1 0x0 DUP3 PUSH1 0x1F DUP4 ADD SLT PUSH3 0x1DF JUMPI PUSH3 0x1DE PUSH3 0x3F2 JUMP JUMPDEST JUMPDEST DUP2 MLOAD PUSH3 0x1F1 DUP5 DUP3 PUSH1 0x20 DUP7 ADD PUSH3 0x17C JUMP JUMPDEST SWAP2 POP POP SWAP3 SWAP2 POP POP JUMP JUMPDEST PUSH1 0x0 DUP2 MLOAD SWAP1 POP PUSH3 0x20B DUP2 PUSH3 0x417 JUMP JUMPDEST SWAP3 SWAP2 POP POP JUMP JUMPDEST PUSH1 0x0 DUP1 PUSH1 0x40 DUP4 DUP6 SUB SLT ISZERO PUSH3 0x22B JUMPI PUSH3 0x22A PUSH3 0x401 JUMP JUMPDEST JUMPDEST PUSH1 0x0 PUSH3 0x23B DUP6 DUP3 DUP7 ADD PUSH3 0x1FA JUMP JUMPDEST SWAP3 POP POP PUSH1 0x20 DUP4 ADD MLOAD PUSH8 0xFFFFFFFFFFFFFFFF DUP2 GT ISZERO PUSH3 0x25F JUMPI PUSH3 0x25E PUSH3 0x3FC JUMP JUMPDEST JUMPDEST PUSH3 0x26D DUP6 DUP3 DUP7 ADD PUSH3 0x1C7 JUMP JUMPDEST SWAP2 POP POP SWAP3 POP SWAP3 SWAP1 POP JUMP JUMPDEST PUSH1 0x0 PUSH3 0x283 PUSH3 0x296 JUMP JUMPDEST SWAP1 POP PUSH3 0x291 DUP3 DUP3 PUSH3 0x35E JUMP JUMPDEST SWAP2 SWAP1 POP JUMP JUMPDEST PUSH1 0x0 PUSH1 0x40 MLOAD SWAP1 POP SWAP1 JUMP JUMPDEST PUSH1 0x0 PUSH8 0xFFFFFFFFFFFFFFFF DUP3 GT ISZERO PUSH3 0x2BE JUMPI PUSH3 0x2BD PUSH3 0x3C3 JUMP JUMPDEST JUMPDEST PUSH3 0x2C9 DUP3 PUSH3 0x406 JUMP JUMPDEST SWAP1 POP PUSH1 0x20 DUP2 ADD SWAP1 POP SWAP2 SWAP1 POP JUMP JUMPDEST PUSH1 0x0 PUSH16 0xFFFFFFFFFFFFFFFFFFFFFFFFFFFFFFFF DUP3 AND SWAP1 POP SWAP2 SWAP1 POP JUMP JUMPDEST PUSH1 0x0 JUMPDEST DUP4 DUP2 LT ISZERO PUSH3 0x312 JUMPI DUP1 DUP3 ADD MLOAD DUP2 DUP5 ADD MSTORE PUSH1 0x20 DUP2 ADD SWAP1 POP PUSH3 0x2F5 JUMP JUMPDEST DUP4 DUP2 GT ISZERO PUSH3 0x322 JUMPI PUSH1 0x0 DUP5 DUP5 ADD MSTORE JUMPDEST POP POP POP POP JUMP JUMPDEST PUSH1 0x0 PUSH1 0x2 DUP3 DIV SWAP1 POP PUSH1 0x1 DUP3 AND DUP1 PUSH3 0x341 JUMPI PUSH1 0x7F DUP3 AND SWAP2 POP JUMPDEST PUSH1 0x20 DUP3 LT DUP2 EQ ISZERO PUSH3 0x358 JUMPI PUSH3 0x357 PUSH3 0x394 JUMP JUMPDEST JUMPDEST POP SWAP2 SWAP1 POP JUMP JUMPDEST PUSH3 0x369 DUP3 PUSH3 0x406 JUMP JUMPDEST DUP2 ADD DUP2 DUP2 LT PUSH8 0xFFFFFFFFFFFFFFFF DUP3 GT OR ISZERO PUSH3 0x38B JUMPI PUSH3 0x38A PUSH3 0x3C3 JUMP JUMPDEST JUMPDEST DUP1 PUSH1 0x40 MSTORE POP POP POP JUMP JUMPDEST PUSH32 0x4E487B7100000000000000000000000000000000000000000000000000000000 PUSH1 0x0 MSTORE PUSH1 0x22 PUSH1 0x4 MSTORE PUSH1 0x24 PUSH1 0x0 REVERT JUMPDEST PUSH32 0x4E487B7100000000000000000000000000000000000000000000000000000000 PUSH1 0x0 MSTORE PUSH1 0x41 PUSH1 0x4 MSTORE PUSH1 0x24 PUSH1 0x0 REVERT JUMPDEST PUSH1 0x0 DUP1 REVERT JUMPDEST PUSH1 0x0 DUP1 REVERT JUMPDEST PUSH1 0x0 DUP1 REVERT JUMPDEST PUSH1 0x0 DUP1 REVERT JUMPDEST PUSH1 0x0 PUSH1 0x1F NOT PUSH1 0x1F DUP4 ADD AND SWAP1 POP SWAP2 SWAP1 POP JUMP JUMPDEST PUSH3 0x422 DUP2 PUSH3 0x2D6 JUMP JUMPDEST DUP2 EQ PUSH3 0x42E JUMPI PUSH1 0x0 DUP1 REVERT JUMPDEST POP JUMP JUMPDEST PUSH2 0x4B3 DUP1 PUSH3 0x441 PUSH1 0x0 CODECOPY PUSH1 0x0 RETURN INVALID PUSH1 0x80 PUSH1 0x40 MSTORE CALLVALUE DUP1 ISZERO PUSH2 0x10 JUMPI PUSH1 0x0 DUP1 REVERT JUMPDEST POP PUSH1 0x4 CALLDATASIZE LT PUSH2 0x62 JUMPI PUSH1 0x0 CALLDATALOAD PUSH1 0xE0 SHR DUP1 PUSH4 0x438E65CF EQ PUSH2 0x67 JUMPI DUP1 PUSH4 0x590E1AE3 EQ PUSH2 0x85 JUMPI DUP1 PUSH4 0x699E5B6D EQ PUSH2 0x8F JUMPI DUP1 PUSH4 0x6B6F4A9D EQ PUSH2 0xAD JUMPI DUP1 PUSH4 0x75AF65D1 EQ PUSH2 0xCB JUMPI DUP1 PUSH4 0xA6F2AE3A EQ PUSH2 0xE9 JUMPI JUMPDEST PUSH1 0x0 DUP1 REVERT JUMPDEST PUSH2 0x6F PUSH2 0xF3 JUMP JUMPDEST PUSH1 0x40 MLOAD PUSH2 0x7C SWAP2 SWAP1 PUSH2 0x2F3 JUMP JUMPDEST PUSH1 0x40 MLOAD DUP1 SWAP2 SUB SWAP1 RETURN JUMPDEST PUSH2 0x8D PUSH2 0x119 JUMP JUMPDEST STOP JUMPDEST PUSH2 0x97 PUSH2 0x17E JUMP JUMPDEST PUSH1 0x40 MLOAD PUSH2 0xA4 SWAP2 SWAP1 PUSH2 0x2F3 JUMP JUMPDEST PUSH1 0x40 MLOAD DUP1 SWAP2 SUB SWAP1 RETURN JUMPDEST PUSH2 0xB5 PUSH2 0x1A0 JUMP JUMPDEST PUSH1 0x40 MLOAD PUSH2 0xC2 SWAP2 SWAP1 PUSH2 0x2F3 JUMP JUMPDEST PUSH1 0x40 MLOAD DUP1 SWAP2 SUB SWAP1 RETURN JUMPDEST PUSH2 0xD3 PUSH2 0x1C2 JUMP JUMPDEST PUSH1 0x40 MLOAD PUSH2 0xE0 SWAP2 SWAP1 PUSH2 0x2F3 JUMP JUMPDEST PUSH1 0x40 MLOAD DUP1 SWAP2 SUB SWAP1 RETURN JUMPDEST PUSH2 0xF1 PUSH2 0x27F JUMP JUMPDEST STOP JUMPDEST PUSH1 0x0 PUSH1 0x1 PUSH1 0x0 SWAP1 SLOAD SWAP1 PUSH2 0x100 EXP SWAP1 DIV PUSH16 0xFFFFFFFFFFFFFFFFFFFFFFFFFFFFFFFF AND SWAP1 POP SWAP1 JUMP JUMPDEST PUSH1 0x1 DUP1 PUSH1 0x0 DUP3 DUP3 DUP3 SWAP1 SLOAD SWAP1 PUSH2 0x100 EXP SWAP1 DIV PUSH16 0xFFFFFFFFFFFFFFFFFFFFFFFFFFFFFFFF AND PUSH2 0x146 SWAP2 SWAP1 PUSH2 0x3CF JUMP JUMPDEST SWAP3 POP PUSH2 0x100 EXP DUP2 SLOAD DUP2 PUSH16 0xFFFFFFFFFFFFFFFFFFFFFFFFFFFFFFFF MUL NOT AND SWAP1 DUP4 PUSH16 0xFFFFFFFFFFFFFFFFFFFFFFFFFFFFFFFF AND MUL OR SWAP1 SSTORE POP JUMP JUMPDEST PUSH1 0x1 PUSH1 0x0 SWAP1 SLOAD SWAP1 PUSH2 0x100 EXP SWAP1 DIV PUSH16 0xFFFFFFFFFFFFFFFFFFFFFFFFFFFFFFFF AND DUP2 JUMP JUMPDEST PUSH1 0x1 PUSH1 0x10 SWAP1 SLOAD SWAP1 PUSH2 0x100 EXP SWAP1 DIV PUSH16 0xFFFFFFFFFFFFFFFFFFFFFFFFFFFFFFFF AND DUP2 JUMP JUMPDEST PUSH1 0x0 PUSH2 0x2710 PUSH1 0x1 PUSH1 0x10 SWAP1 SLOAD SWAP1 PUSH2 0x100 EXP SWAP1 DIV PUSH16 0xFFFFFFFFFFFFFFFFFFFFFFFFFFFFFFFF AND PUSH1 0x1 PUSH1 0x0 SWAP1 SLOAD SWAP1 PUSH2 0x100 EXP SWAP1 DIV PUSH16 0xFFFFFFFFFFFFFFFFFFFFFFFFFFFFFFFF AND PUSH2 0x20F SWAP2 SWAP1 PUSH2 0x385 JUMP JUMPDEST PUSH2 0x219 SWAP2 SWAP1 PUSH2 0x354 JUMP JUMPDEST PUSH1 0x1 PUSH1 0x0 DUP3 DUP3 DUP3 SWAP1 SLOAD SWAP1 PUSH2 0x100 EXP SWAP1 DIV PUSH16 0xFFFFFFFFFFFFFFFFFFFFFFFFFFFFFFFF AND PUSH2 0x245 SWAP2 SWAP1 PUSH2 0x3CF JUMP JUMPDEST SWAP3 POP PUSH2 0x100 EXP DUP2 SLOAD DUP2 PUSH16 0xFFFFFFFFFFFFFFFFFFFFFFFFFFFFFFFF MUL NOT AND SWAP1 DUP4 PUSH16 0xFFFFFFFFFFFFFFFFFFFFFFFFFFFFFFFF AND MUL OR SWAP1 SSTORE SWAP1 POP SWAP1 JUMP JUMPDEST PUSH1 0x1 DUP1 PUSH1 0x0 DUP3 DUP3 DUP3 SWAP1 SLOAD SWAP1 PUSH2 0x100 EXP SWAP1 DIV PUSH16 0xFFFFFFFFFFFFFFFFFFFFFFFFFFFFFFFF AND PUSH2 0x2AC SWAP2 SWAP1 PUSH2 0x30E JUMP JUMPDEST SWAP3 POP PUSH2 0x100 EXP DUP2 SLOAD DUP2 PUSH16 0xFFFFFFFFFFFFFFFFFFFFFFFFFFFFFFFF MUL NOT AND SWAP1 DUP4 PUSH16 0xFFFFFFFFFFFFFFFFFFFFFFFFFFFFFFFF AND MUL OR SWAP1 SSTORE POP JUMP JUMPDEST PUSH2 0x2ED DUP2 PUSH2 0x403 JUMP JUMPDEST DUP3 MSTORE POP POP JUMP JUMPDEST PUSH1 0x0 PUSH1 0x20 DUP3 ADD SWAP1 POP PUSH2 0x308 PUSH1 0x0 DUP4 ADD DUP5 PUSH2 0x2E4 JUMP JUMPDEST SWAP3 SWAP2 POP POP JUMP JUMPDEST PUSH1 0x0 PUSH2 0x319 DUP3 PUSH2 0x403 JUMP JUMPDEST SWAP2 POP PUSH2 0x324 DUP4 PUSH2 0x403 JUMP JUMPDEST SWAP3 POP DUP3 PUSH16 0xFFFFFFFFFFFFFFFFFFFFFFFFFFFFFFFF SUB DUP3 GT ISZERO PUSH2 0x349 JUMPI PUSH2 0x348 PUSH2 0x41F JUMP JUMPDEST JUMPDEST DUP3 DUP3 ADD SWAP1 POP SWAP3 SWAP2 POP POP JUMP JUMPDEST PUSH1 0x0 PUSH2 0x35F DUP3 PUSH2 0x403 JUMP JUMPDEST SWAP2 POP PUSH2 0x36A DUP4 PUSH2 0x403 JUMP JUMPDEST SWAP3 POP DUP3 PUSH2 0x37A JUMPI PUSH2 0x379 PUSH2 0x44E JUMP JUMPDEST JUMPDEST DUP3 DUP3 DIV SWAP1 POP SWAP3 SWAP2 POP POP JUMP JUMPDEST PUSH1 0x0 PUSH2 0x390 DUP3 PUSH2 0x403 JUMP JUMPDEST SWAP2 POP PUSH2 0x39B DUP4 PUSH2 0x403 JUMP JUMPDEST SWAP3 POP DUP2 PUSH16 0xFFFFFFFFFFFFFFFFFFFFFFFFFFFFFFFF DIV DUP4 GT DUP3 ISZERO ISZERO AND ISZERO PUSH2 0x3C4 JUMPI PUSH2 0x3C3 PUSH2 0x41F JUMP JUMPDEST JUMPDEST DUP3 DUP3 MUL SWAP1 POP SWAP3 SWAP2 POP POP JUMP JUMPDEST PUSH1 0x0 PUSH2 0x3DA DUP3 PUSH2 0x403 JUMP JUMPDEST SWAP2 POP PUSH2 0x3E5 DUP4 PUSH2 0x403 JUMP JUMPDEST SWAP3 POP DUP3 DUP3 LT ISZERO PUSH2 0x3F8 JUMPI PUSH2 0x3F7 PUSH2 0x41F JUMP JUMPDEST JUMPDEST DUP3 DUP3 SUB SWAP1 POP SWAP3 SWAP2 POP POP JUMP JUMPDEST PUSH1 0x0 PUSH16 0xFFFFFFFFFFFFFFFFFFFFFFFFFFFFFFFF DUP3 AND SWAP1 POP SWAP2 SWAP1 POP JUMP JUMPDEST PUSH32 0x4E487B7100000000000000000000000000000000000000000000000000000000 PUSH1 0x0 MSTORE PUSH1 0x11 PUSH1 0x4 MSTORE PUSH1 0x24 PUSH1 0x0 REVERT JUMPDEST PUSH32 0x4E487B7100000000000000000000000000000000000000000000000000000000 PUSH1 0x0 MSTORE PUSH1 0x12 PUSH1 0x4 MSTORE PUSH1 0x24 PUSH1 0x0 REVERT INVALID LOG2 PUSH5 0x6970667358 0x22 SLT KECCAK256 0xE0 PUSH9 0x8717F068949B4E3FBF MSTORE8 0x2B 0xA8 0x4F 0x4A 0xDA 0xDB PUSH6 0x68203140F766 SWAP12 0xE5 0xE0 0xA8 0xE4 SWAP5 0xA9 PUSH5 0x736F6C6343 STOP ADDMOD SMOD STOP CALLER "
				},
				"gasEstimates": {
					"creation": {
						"codeDepositCost": "240600",
						"executionCost": "infinite",
						"totalCost": "infinite"
					},
					"external": {
						"Profit()": "2493",
						"buy()": "infinite",
						"discount()": "2565",
						"discounts()": "infinite",
						"refund()": "infinite",
						"viewProfits()": "2457"
					}
				},
				"methodIdentifiers": {
					"Profit()": "699e5b6d",
					"buy()": "a6f2ae3a",
					"discount()": "6b6f4a9d",
					"discounts()": "75af65d1",
					"refund()": "590e1ae3",
					"viewProfits()": "438e65cf"
				}
			},
			"storageLayout": {
				"storage": [
					{
						"astId": 3,
						"contract": "contracts/notbitcoin.sol:notbitcoin",
						"label": "notbitcoin",
						"offset": 0,
						"slot": "0",
						"type": "t_string_storage"
					},
					{
						"astId": 5,
						"contract": "contracts/notbitcoin.sol:notbitcoin",
						"label": "Profit",
						"offset": 0,
						"slot": "1",
						"type": "t_uint128"
					},
					{
						"astId": 8,
						"contract": "contracts/notbitcoin.sol:notbitcoin",
						"label": "discount",
						"offset": 16,
						"slot": "1",
						"type": "t_uint128"
					}
				],
				"types": {
					"t_string_storage": {
						"encoding": "bytes",
						"label": "string",
						"numberOfBytes": "32"
					},
					"t_uint128": {
						"encoding": "inplace",
						"label": "uint128",
						"numberOfBytes": "16"
					}
				}
			},
			"userdoc": {
				"kind": "user",
				"methods": {},
				"version": 1
			}
		}
	}
}