{
	"contracts/notbitcoin.sol": {
		"notbitcoin": {
			"abi": [
				{
					"inputs": [
						{
							"internalType": "int256",
							"name": "userImput",
							"type": "int256"
						}
					],
					"stateMutability": "nonpayable",
					"type": "constructor"
				},
				{
					"inputs": [],
					"name": "ViewProfits",
					"outputs": [
						{
							"internalType": "int256",
							"name": "",
							"type": "int256"
						}
					],
					"stateMutability": "view",
					"type": "function"
				},
				{
					"inputs": [],
					"name": "buy",
					"outputs": [],
					"stateMutability": "nonpayable",
					"type": "function"
				},
				{
					"inputs": [],
					"name": "refund",
					"outputs": [],
					"stateMutability": "nonpayable",
					"type": "function"
				}
			],
			"devdoc": {
				"kind": "dev",
				"methods": {},
				"version": 1
			},
			"evm": {
				"assembly": "    /* \"contracts/notbitcoin.sol\":35:288  contract notbitcoin {... */\n  mstore(0x40, 0x80)\n    /* \"contracts/notbitcoin.sol\":91:158  constructor(int userImput) {... */\n  callvalue\n  dup1\n  iszero\n  tag_1\n  jumpi\n  0x00\n  dup1\n  revert\ntag_1:\n  pop\n  mload(0x40)\n  sub(codesize, bytecodeSize)\n  dup1\n  bytecodeSize\n  dup4\n  codecopy\n  dup2\n  dup2\n  add\n  0x40\n  mstore\n  dup2\n  add\n  swap1\n  tag_2\n  swap2\n  swap1\n  tag_3\n  jump\t// in\ntag_2:\n    /* \"contracts/notbitcoin.sol\":142:151  userImput */\n  dup1\n    /* \"contracts/notbitcoin.sol\":128:139  ViewProfits */\n  0x00\n    /* \"contracts/notbitcoin.sol\":128:151  ViewProfits = userImput */\n  dup2\n  swap1\n  sstore\n  pop\n    /* \"contracts/notbitcoin.sol\":91:158  constructor(int userImput) {... */\n  pop\n    /* \"contracts/notbitcoin.sol\":35:288  contract notbitcoin {... */\n  jump(tag_6)\n    /* \"#utility.yul\":7:148   */\ntag_8:\n    /* \"#utility.yul\":63:68   */\n  0x00\n    /* \"#utility.yul\":94:100   */\n  dup2\n    /* \"#utility.yul\":88:101   */\n  mload\n    /* \"#utility.yul\":79:101   */\n  swap1\n  pop\n    /* \"#utility.yul\":110:142   */\n  tag_10\n    /* \"#utility.yul\":136:141   */\n  dup2\n    /* \"#utility.yul\":110:142   */\n  tag_11\n  jump\t// in\ntag_10:\n    /* \"#utility.yul\":7:148   */\n  swap3\n  swap2\n  pop\n  pop\n  jump\t// out\n    /* \"#utility.yul\":154:503   */\ntag_3:\n    /* \"#utility.yul\":223:229   */\n  0x00\n    /* \"#utility.yul\":272:274   */\n  0x20\n    /* \"#utility.yul\":260:269   */\n  dup3\n    /* \"#utility.yul\":251:258   */\n  dup5\n    /* \"#utility.yul\":247:270   */\n  sub\n    /* \"#utility.yul\":243:275   */\n  slt\n    /* \"#utility.yul\":240:359   */\n  iszero\n  tag_13\n  jumpi\n    /* \"#utility.yul\":278:357   */\n  tag_14\n  tag_15\n  jump\t// in\ntag_14:\n    /* \"#utility.yul\":240:359   */\ntag_13:\n    /* \"#utility.yul\":398:399   */\n  0x00\n    /* \"#utility.yul\":423:486   */\n  tag_16\n    /* \"#utility.yul\":478:485   */\n  dup5\n    /* \"#utility.yul\":469:475   */\n  dup3\n    /* \"#utility.yul\":458:467   */\n  dup6\n    /* \"#utility.yul\":454:476   */\n  add\n    /* \"#utility.yul\":423:486   */\n  tag_8\n  jump\t// in\ntag_16:\n    /* \"#utility.yul\":413:486   */\n  swap2\n  pop\n    /* \"#utility.yul\":369:496   */\n  pop\n    /* \"#utility.yul\":154:503   */\n  swap3\n  swap2\n  pop\n  pop\n  jump\t// out\n    /* \"#utility.yul\":590:666   */\ntag_19:\n    /* \"#utility.yul\":626:633   */\n  0x00\n    /* \"#utility.yul\":655:660   */\n  dup2\n    /* \"#utility.yul\":644:660   */\n  swap1\n  pop\n    /* \"#utility.yul\":590:666   */\n  swap2\n  swap1\n  pop\n  jump\t// out\n    /* \"#utility.yul\":795:912   */\ntag_15:\n    /* \"#utility.yul\":904:905   */\n  0x00\n    /* \"#utility.yul\":901:902   */\n  dup1\n    /* \"#utility.yul\":894:906   */\n  revert\n    /* \"#utility.yul\":918:1038   */\ntag_11:\n    /* \"#utility.yul\":990:1013   */\n  tag_25\n    /* \"#utility.yul\":1007:1012   */\n  dup2\n    /* \"#utility.yul\":990:1013   */\n  tag_19\n  jump\t// in\ntag_25:\n    /* \"#utility.yul\":983:988   */\n  dup2\n    /* \"#utility.yul\":980:1014   */\n  eq\n    /* \"#utility.yul\":970:1032   */\n  tag_26\n  jumpi\n    /* \"#utility.yul\":1028:1029   */\n  0x00\n    /* \"#utility.yul\":1025:1026   */\n  dup1\n    /* \"#utility.yul\":1018:1030   */\n  revert\n    /* \"#utility.yul\":970:1032   */\ntag_26:\n    /* \"#utility.yul\":918:1038   */\n  pop\n  jump\t// out\n    /* \"contracts/notbitcoin.sol\":35:288  contract notbitcoin {... */\ntag_6:\n  dataSize(sub_0)\n  dup1\n  dataOffset(sub_0)\n  0x00\n  codecopy\n  0x00\n  return\nstop\n\nsub_0: assembly {\n        /* \"contracts/notbitcoin.sol\":35:288  contract notbitcoin {... */\n      mstore(0x40, 0x80)\n      callvalue\n      dup1\n      iszero\n      tag_1\n      jumpi\n      0x00\n      dup1\n      revert\n    tag_1:\n      pop\n      jumpi(tag_2, lt(calldatasize, 0x04))\n      shr(0xe0, calldataload(0x00))\n      dup1\n      0x590e1ae3\n      eq\n      tag_3\n      jumpi\n      dup1\n      0xa6f2ae3a\n      eq\n      tag_4\n      jumpi\n      dup1\n      0xb8f366d7\n      eq\n      tag_5\n      jumpi\n    tag_2:\n      0x00\n      dup1\n      revert\n        /* \"contracts/notbitcoin.sol\":227:286  function refund() public {... */\n    tag_3:\n      tag_6\n      tag_7\n      jump\t// in\n    tag_6:\n      stop\n        /* \"contracts/notbitcoin.sol\":165:220  function buy() public {... */\n    tag_4:\n      tag_8\n      tag_9\n      jump\t// in\n    tag_8:\n      stop\n        /* \"contracts/notbitcoin.sol\":62:84  int public ViewProfits */\n    tag_5:\n      tag_10\n      tag_11\n      jump\t// in\n    tag_10:\n      mload(0x40)\n      tag_12\n      swap2\n      swap1\n      tag_13\n      jump\t// in\n    tag_12:\n      mload(0x40)\n      dup1\n      swap2\n      sub\n      swap1\n      return\n        /* \"contracts/notbitcoin.sol\":227:286  function refund() public {... */\n    tag_7:\n        /* \"contracts/notbitcoin.sol\":278:279  1 */\n      0x01\n        /* \"contracts/notbitcoin.sol\":263:274  ViewProfits */\n      0x00\n      dup1\n        /* \"contracts/notbitcoin.sol\":263:279  ViewProfits -= 1 */\n      dup3\n      dup3\n      sload\n      tag_15\n      swap2\n      swap1\n      tag_16\n      jump\t// in\n    tag_15:\n      swap3\n      pop\n      pop\n      dup2\n      swap1\n      sstore\n      pop\n        /* \"contracts/notbitcoin.sol\":227:286  function refund() public {... */\n      jump\t// out\n        /* \"contracts/notbitcoin.sol\":165:220  function buy() public {... */\n    tag_9:\n        /* \"contracts/notbitcoin.sol\":212:213  1 */\n      0x01\n        /* \"contracts/notbitcoin.sol\":197:208  ViewProfits */\n      0x00\n      dup1\n        /* \"contracts/notbitcoin.sol\":197:213  ViewProfits += 1 */\n      dup3\n      dup3\n      sload\n      tag_18\n      swap2\n      swap1\n      tag_19\n      jump\t// in\n    tag_18:\n      swap3\n      pop\n      pop\n      dup2\n      swap1\n      sstore\n      pop\n        /* \"contracts/notbitcoin.sol\":165:220  function buy() public {... */\n      jump\t// out\n        /* \"contracts/notbitcoin.sol\":62:84  int public ViewProfits */\n    tag_11:\n      sload(0x00)\n      dup2\n      jump\t// out\n        /* \"#utility.yul\":7:122   */\n    tag_21:\n        /* \"#utility.yul\":92:115   */\n      tag_23\n        /* \"#utility.yul\":109:114   */\n      dup2\n        /* \"#utility.yul\":92:115   */\n      tag_24\n      jump\t// in\n    tag_23:\n        /* \"#utility.yul\":87:90   */\n      dup3\n        /* \"#utility.yul\":80:116   */\n      mstore\n        /* \"#utility.yul\":7:122   */\n      pop\n      pop\n      jump\t// out\n        /* \"#utility.yul\":128:346   */\n    tag_13:\n        /* \"#utility.yul\":219:223   */\n      0x00\n        /* \"#utility.yul\":257:259   */\n      0x20\n        /* \"#utility.yul\":246:255   */\n      dup3\n        /* \"#utility.yul\":242:260   */\n      add\n        /* \"#utility.yul\":234:260   */\n      swap1\n      pop\n        /* \"#utility.yul\":270:339   */\n      tag_26\n        /* \"#utility.yul\":336:337   */\n      0x00\n        /* \"#utility.yul\":325:334   */\n      dup4\n        /* \"#utility.yul\":321:338   */\n      add\n        /* \"#utility.yul\":312:318   */\n      dup5\n        /* \"#utility.yul\":270:339   */\n      tag_21\n      jump\t// in\n    tag_26:\n        /* \"#utility.yul\":128:346   */\n      swap3\n      swap2\n      pop\n      pop\n      jump\t// out\n        /* \"#utility.yul\":352:877   */\n    tag_19:\n        /* \"#utility.yul\":391:394   */\n      0x00\n        /* \"#utility.yul\":410:429   */\n      tag_28\n        /* \"#utility.yul\":427:428   */\n      dup3\n        /* \"#utility.yul\":410:429   */\n      tag_24\n      jump\t// in\n    tag_28:\n        /* \"#utility.yul\":405:429   */\n      swap2\n      pop\n        /* \"#utility.yul\":443:462   */\n      tag_29\n        /* \"#utility.yul\":460:461   */\n      dup4\n        /* \"#utility.yul\":443:462   */\n      tag_24\n      jump\t// in\n    tag_29:\n        /* \"#utility.yul\":438:462   */\n      swap3\n      pop\n        /* \"#utility.yul\":631:632   */\n      dup2\n        /* \"#utility.yul\":563:629   */\n      0x7fffffffffffffffffffffffffffffffffffffffffffffffffffffffffffffff\n        /* \"#utility.yul\":559:633   */\n      sub\n        /* \"#utility.yul\":556:557   */\n      dup4\n        /* \"#utility.yul\":552:634   */\n      sgt\n        /* \"#utility.yul\":547:548   */\n      0x00\n        /* \"#utility.yul\":544:545   */\n      dup4\n        /* \"#utility.yul\":540:549   */\n      slt\n        /* \"#utility.yul\":533:550   */\n      iszero\n        /* \"#utility.yul\":529:635   */\n      and\n        /* \"#utility.yul\":526:658   */\n      iszero\n      tag_30\n      jumpi\n        /* \"#utility.yul\":638:656   */\n      tag_31\n      tag_32\n      jump\t// in\n    tag_31:\n        /* \"#utility.yul\":526:658   */\n    tag_30:\n        /* \"#utility.yul\":818:819   */\n      dup2\n        /* \"#utility.yul\":750:816   */\n      0x8000000000000000000000000000000000000000000000000000000000000000\n        /* \"#utility.yul\":746:820   */\n      sub\n        /* \"#utility.yul\":743:744   */\n      dup4\n        /* \"#utility.yul\":739:821   */\n      slt\n        /* \"#utility.yul\":735:736   */\n      0x00\n        /* \"#utility.yul\":732:733   */\n      dup4\n        /* \"#utility.yul\":728:737   */\n      slt\n        /* \"#utility.yul\":724:822   */\n      and\n        /* \"#utility.yul\":721:845   */\n      iszero\n      tag_33\n      jumpi\n        /* \"#utility.yul\":825:843   */\n      tag_34\n      tag_32\n      jump\t// in\n    tag_34:\n        /* \"#utility.yul\":721:845   */\n    tag_33:\n        /* \"#utility.yul\":869:870   */\n      dup3\n        /* \"#utility.yul\":866:867   */\n      dup3\n        /* \"#utility.yul\":862:871   */\n      add\n        /* \"#utility.yul\":855:871   */\n      swap1\n      pop\n        /* \"#utility.yul\":352:877   */\n      swap3\n      swap2\n      pop\n      pop\n      jump\t// out\n        /* \"#utility.yul\":883:1410   */\n    tag_16:\n        /* \"#utility.yul\":922:926   */\n      0x00\n        /* \"#utility.yul\":942:961   */\n      tag_36\n        /* \"#utility.yul\":959:960   */\n      dup3\n        /* \"#utility.yul\":942:961   */\n      tag_24\n      jump\t// in\n    tag_36:\n        /* \"#utility.yul\":937:961   */\n      swap2\n      pop\n        /* \"#utility.yul\":975:994   */\n      tag_37\n        /* \"#utility.yul\":992:993   */\n      dup4\n        /* \"#utility.yul\":975:994   */\n      tag_24\n      jump\t// in\n    tag_37:\n        /* \"#utility.yul\":970:994   */\n      swap3\n      pop\n        /* \"#utility.yul\":1164:1165   */\n      dup3\n        /* \"#utility.yul\":1096:1162   */\n      0x8000000000000000000000000000000000000000000000000000000000000000\n        /* \"#utility.yul\":1092:1166   */\n      add\n        /* \"#utility.yul\":1089:1090   */\n      dup3\n        /* \"#utility.yul\":1085:1167   */\n      slt\n        /* \"#utility.yul\":1080:1081   */\n      0x00\n        /* \"#utility.yul\":1077:1078   */\n      dup5\n        /* \"#utility.yul\":1073:1082   */\n      slt\n        /* \"#utility.yul\":1066:1083   */\n      iszero\n        /* \"#utility.yul\":1062:1168   */\n      and\n        /* \"#utility.yul\":1059:1191   */\n      iszero\n      tag_38\n      jumpi\n        /* \"#utility.yul\":1171:1189   */\n      tag_39\n      tag_32\n      jump\t// in\n    tag_39:\n        /* \"#utility.yul\":1059:1191   */\n    tag_38:\n        /* \"#utility.yul\":1350:1351   */\n      dup3\n        /* \"#utility.yul\":1282:1348   */\n      0x7fffffffffffffffffffffffffffffffffffffffffffffffffffffffffffffff\n        /* \"#utility.yul\":1278:1352   */\n      add\n        /* \"#utility.yul\":1275:1276   */\n      dup3\n        /* \"#utility.yul\":1271:1353   */\n      sgt\n        /* \"#utility.yul\":1267:1268   */\n      0x00\n        /* \"#utility.yul\":1264:1265   */\n      dup5\n        /* \"#utility.yul\":1260:1269   */\n      slt\n        /* \"#utility.yul\":1256:1354   */\n      and\n        /* \"#utility.yul\":1253:1377   */\n      iszero\n      tag_40\n      jumpi\n        /* \"#utility.yul\":1357:1375   */\n      tag_41\n      tag_32\n      jump\t// in\n    tag_41:\n        /* \"#utility.yul\":1253:1377   */\n    tag_40:\n        /* \"#utility.yul\":1402:1403   */\n      dup3\n        /* \"#utility.yul\":1399:1400   */\n      dup3\n        /* \"#utility.yul\":1395:1404   */\n      sub\n        /* \"#utility.yul\":1387:1404   */\n      swap1\n      pop\n        /* \"#utility.yul\":883:1410   */\n      swap3\n      swap2\n      pop\n      pop\n      jump\t// out\n        /* \"#utility.yul\":1416:1492   */\n    tag_24:\n        /* \"#utility.yul\":1452:1459   */\n      0x00\n        /* \"#utility.yul\":1481:1486   */\n      dup2\n        /* \"#utility.yul\":1470:1486   */\n      swap1\n      pop\n        /* \"#utility.yul\":1416:1492   */\n      swap2\n      swap1\n      pop\n      jump\t// out\n        /* \"#utility.yul\":1498:1678   */\n    tag_32:\n        /* \"#utility.yul\":1546:1623   */\n      0x4e487b7100000000000000000000000000000000000000000000000000000000\n        /* \"#utility.yul\":1543:1544   */\n      0x00\n        /* \"#utility.yul\":1536:1624   */\n      mstore\n        /* \"#utility.yul\":1643:1647   */\n      0x11\n        /* \"#utility.yul\":1640:1641   */\n      0x04\n        /* \"#utility.yul\":1633:1648   */\n      mstore\n        /* \"#utility.yul\":1667:1671   */\n      0x24\n        /* \"#utility.yul\":1664:1665   */\n      0x00\n        /* \"#utility.yul\":1657:1672   */\n      revert\n\n    auxdata: 0xa2646970667358221220f46021e7245b73a2022b4bd94e89c84486cdacbe7426b5b1392acb1c2b4f52b964736f6c63430008070033\n}\n",
				"bytecode": {
					"linkReferences": {},
					"object": "608060405234801561001057600080fd5b5060405161032b38038061032b83398181016040528101906100329190610054565b80600081905550506100a7565b60008151905061004e81610090565b92915050565b60006020828403121561006a5761006961008b565b5b60006100788482850161003f565b91505092915050565b6000819050919050565b600080fd5b61009981610081565b81146100a457600080fd5b50565b610275806100b66000396000f3fe608060405234801561001057600080fd5b50600436106100415760003560e01c8063590e1ae314610046578063a6f2ae3a14610050578063b8f366d71461005a575b600080fd5b61004e610078565b005b610058610093565b005b6100626100ae565b60405161006f91906100c3565b60405180910390f35b600160008082825461008a9190610172565b92505081905550565b60016000808282546100a591906100de565b92505081905550565b60005481565b6100bd81610206565b82525050565b60006020820190506100d860008301846100b4565b92915050565b60006100e982610206565b91506100f483610206565b9250817f7fffffffffffffffffffffffffffffffffffffffffffffffffffffffffffffff0383136000831215161561012f5761012e610210565b5b817f800000000000000000000000000000000000000000000000000000000000000003831260008312161561016757610166610210565b5b828201905092915050565b600061017d82610206565b915061018883610206565b9250827f8000000000000000000000000000000000000000000000000000000000000000018212600084121516156101c3576101c2610210565b5b827f7fffffffffffffffffffffffffffffffffffffffffffffffffffffffffffffff0182136000841216156101fb576101fa610210565b5b828203905092915050565b6000819050919050565b7f4e487b7100000000000000000000000000000000000000000000000000000000600052601160045260246000fdfea2646970667358221220f46021e7245b73a2022b4bd94e89c84486cdacbe7426b5b1392acb1c2b4f52b964736f6c63430008070033",
					"opcodes": "PUSH1 0x80 PUSH1 0x40 MSTORE CALLVALUE DUP1 ISZERO PUSH2 0x10 JUMPI PUSH1 0x0 DUP1 REVERT JUMPDEST POP PUSH1 0x40 MLOAD PUSH2 0x32B CODESIZE SUB DUP1 PUSH2 0x32B DUP4 CODECOPY DUP2 DUP2 ADD PUSH1 0x40 MSTORE DUP2 ADD SWAP1 PUSH2 0x32 SWAP2 SWAP1 PUSH2 0x54 JUMP JUMPDEST DUP1 PUSH1 0x0 DUP2 SWAP1 SSTORE POP POP PUSH2 0xA7 JUMP JUMPDEST PUSH1 0x0 DUP2 MLOAD SWAP1 POP PUSH2 0x4E DUP2 PUSH2 0x90 JUMP JUMPDEST SWAP3 SWAP2 POP POP JUMP JUMPDEST PUSH1 0x0 PUSH1 0x20 DUP3 DUP5 SUB SLT ISZERO PUSH2 0x6A JUMPI PUSH2 0x69 PUSH2 0x8B JUMP JUMPDEST JUMPDEST PUSH1 0x0 PUSH2 0x78 DUP5 DUP3 DUP6 ADD PUSH2 0x3F JUMP JUMPDEST SWAP2 POP POP SWAP3 SWAP2 POP POP JUMP JUMPDEST PUSH1 0x0 DUP2 SWAP1 POP SWAP2 SWAP1 POP JUMP JUMPDEST PUSH1 0x0 DUP1 REVERT JUMPDEST PUSH2 0x99 DUP2 PUSH2 0x81 JUMP JUMPDEST DUP2 EQ PUSH2 0xA4 JUMPI PUSH1 0x0 DUP1 REVERT JUMPDEST POP JUMP JUMPDEST PUSH2 0x275 DUP1 PUSH2 0xB6 PUSH1 0x0 CODECOPY PUSH1 0x0 RETURN INVALID PUSH1 0x80 PUSH1 0x40 MSTORE CALLVALUE DUP1 ISZERO PUSH2 0x10 JUMPI PUSH1 0x0 DUP1 REVERT JUMPDEST POP PUSH1 0x4 CALLDATASIZE LT PUSH2 0x41 JUMPI PUSH1 0x0 CALLDATALOAD PUSH1 0xE0 SHR DUP1 PUSH4 0x590E1AE3 EQ PUSH2 0x46 JUMPI DUP1 PUSH4 0xA6F2AE3A EQ PUSH2 0x50 JUMPI DUP1 PUSH4 0xB8F366D7 EQ PUSH2 0x5A JUMPI JUMPDEST PUSH1 0x0 DUP1 REVERT JUMPDEST PUSH2 0x4E PUSH2 0x78 JUMP JUMPDEST STOP JUMPDEST PUSH2 0x58 PUSH2 0x93 JUMP JUMPDEST STOP JUMPDEST PUSH2 0x62 PUSH2 0xAE JUMP JUMPDEST PUSH1 0x40 MLOAD PUSH2 0x6F SWAP2 SWAP1 PUSH2 0xC3 JUMP JUMPDEST PUSH1 0x40 MLOAD DUP1 SWAP2 SUB SWAP1 RETURN JUMPDEST PUSH1 0x1 PUSH1 0x0 DUP1 DUP3 DUP3 SLOAD PUSH2 0x8A SWAP2 SWAP1 PUSH2 0x172 JUMP JUMPDEST SWAP3 POP POP DUP2 SWAP1 SSTORE POP JUMP JUMPDEST PUSH1 0x1 PUSH1 0x0 DUP1 DUP3 DUP3 SLOAD PUSH2 0xA5 SWAP2 SWAP1 PUSH2 0xDE JUMP JUMPDEST SWAP3 POP POP DUP2 SWAP1 SSTORE POP JUMP JUMPDEST PUSH1 0x0 SLOAD DUP2 JUMP JUMPDEST PUSH2 0xBD DUP2 PUSH2 0x206 JUMP JUMPDEST DUP3 MSTORE POP POP JUMP JUMPDEST PUSH1 0x0 PUSH1 0x20 DUP3 ADD SWAP1 POP PUSH2 0xD8 PUSH1 0x0 DUP4 ADD DUP5 PUSH2 0xB4 JUMP JUMPDEST SWAP3 SWAP2 POP POP JUMP JUMPDEST PUSH1 0x0 PUSH2 0xE9 DUP3 PUSH2 0x206 JUMP JUMPDEST SWAP2 POP PUSH2 0xF4 DUP4 PUSH2 0x206 JUMP JUMPDEST SWAP3 POP DUP2 PUSH32 0x7FFFFFFFFFFFFFFFFFFFFFFFFFFFFFFFFFFFFFFFFFFFFFFFFFFFFFFFFFFFFFFF SUB DUP4 SGT PUSH1 0x0 DUP4 SLT ISZERO AND ISZERO PUSH2 0x12F JUMPI PUSH2 0x12E PUSH2 0x210 JUMP JUMPDEST JUMPDEST DUP2 PUSH32 0x8000000000000000000000000000000000000000000000000000000000000000 SUB DUP4 SLT PUSH1 0x0 DUP4 SLT AND ISZERO PUSH2 0x167 JUMPI PUSH2 0x166 PUSH2 0x210 JUMP JUMPDEST JUMPDEST DUP3 DUP3 ADD SWAP1 POP SWAP3 SWAP2 POP POP JUMP JUMPDEST PUSH1 0x0 PUSH2 0x17D DUP3 PUSH2 0x206 JUMP JUMPDEST SWAP2 POP PUSH2 0x188 DUP4 PUSH2 0x206 JUMP JUMPDEST SWAP3 POP DUP3 PUSH32 0x8000000000000000000000000000000000000000000000000000000000000000 ADD DUP3 SLT PUSH1 0x0 DUP5 SLT ISZERO AND ISZERO PUSH2 0x1C3 JUMPI PUSH2 0x1C2 PUSH2 0x210 JUMP JUMPDEST JUMPDEST DUP3 PUSH32 0x7FFFFFFFFFFFFFFFFFFFFFFFFFFFFFFFFFFFFFFFFFFFFFFFFFFFFFFFFFFFFFFF ADD DUP3 SGT PUSH1 0x0 DUP5 SLT AND ISZERO PUSH2 0x1FB JUMPI PUSH2 0x1FA PUSH2 0x210 JUMP JUMPDEST JUMPDEST DUP3 DUP3 SUB SWAP1 POP SWAP3 SWAP2 POP POP JUMP JUMPDEST PUSH1 0x0 DUP2 SWAP1 POP SWAP2 SWAP1 POP JUMP JUMPDEST PUSH32 0x4E487B7100000000000000000000000000000000000000000000000000000000 PUSH1 0x0 MSTORE PUSH1 0x11 PUSH1 0x4 MSTORE PUSH1 0x24 PUSH1 0x0 REVERT INVALID LOG2 PUSH5 0x6970667358 0x22 SLT KECCAK256 DELEGATECALL PUSH1 0x21 0xE7 0x24 JUMPDEST PUSH20 0xA2022B4BD94E89C84486CDACBE7426B5B1392ACB SHR 0x2B 0x4F MSTORE 0xB9 PUSH5 0x736F6C6343 STOP ADDMOD SMOD STOP CALLER "
				},
				"gasEstimates": {
					"creation": {
						"codeDepositCost": "125800",
						"executionCost": "infinite",
						"totalCost": "infinite"
					},
					"external": {
						"ViewProfits()": "2451",
						"buy()": "infinite",
						"refund()": "infinite"
					}
				},
				"methodIdentifiers": {
					"ViewProfits()": "b8f366d7",
					"buy()": "a6f2ae3a",
					"refund()": "590e1ae3"
				}
			},
			"storageLayout": {
				"storage": [
					{
						"astId": 3,
						"contract": "contracts/notbitcoin.sol:notbitcoin",
						"label": "ViewProfits",
						"offset": 0,
						"slot": "0",
						"type": "t_int256"
					}
				],
				"types": {
					"t_int256": {
						"encoding": "inplace",
						"label": "int256",
						"numberOfBytes": "32"
					}
				}
			},
			"userdoc": {
				"kind": "user",
				"methods": {},
				"version": 1
			}
		}
	}
}