{
	"contracts/notbitcoin.sol": {
		"notbitcoin": {
			"abi": [
				{
					"inputs": [
						{
							"internalType": "int256",
							"name": "userInput",
							"type": "int256"
						},
						{
							"internalType": "string",
							"name": "_notbitcoin",
							"type": "string"
						}
					],
					"stateMutability": "nonpayable",
					"type": "constructor"
				},
				{
					"inputs": [],
					"name": "Profit",
					"outputs": [
						{
							"internalType": "int256",
							"name": "",
							"type": "int256"
						}
					],
					"stateMutability": "view",
					"type": "function"
				},
				{
					"inputs": [],
					"name": "buy",
					"outputs": [],
					"stateMutability": "nonpayable",
					"type": "function"
				},
				{
					"inputs": [],
					"name": "refund",
					"outputs": [],
					"stateMutability": "nonpayable",
					"type": "function"
				},
				{
					"inputs": [],
					"name": "viewProfits",
					"outputs": [
						{
							"internalType": "int256",
							"name": "",
							"type": "int256"
						}
					],
					"stateMutability": "view",
					"type": "function"
				}
			],
			"devdoc": {
				"kind": "dev",
				"methods": {},
				"version": 1
			},
			"evm": {
				"assembly": "    /* \"contracts/notbitcoin.sol\":34:542  contract notbitcoin {... */\n  mstore(0x40, 0x80)\n    /* \"contracts/notbitcoin.sol\":107:231  constructor(int userInput, string memory _notbitcoin) {... */\n  callvalue\n  dup1\n  iszero\n  tag_1\n  jumpi\n  0x00\n  dup1\n  revert\ntag_1:\n  pop\n  mload(0x40)\n  sub(codesize, bytecodeSize)\n  dup1\n  bytecodeSize\n  dup4\n  codecopy\n  dup2\n  dup2\n  add\n  0x40\n  mstore\n  dup2\n  add\n  swap1\n  tag_2\n  swap2\n  swap1\n  tag_3\n  jump\t// in\ntag_2:\n    /* \"contracts/notbitcoin.sol\":180:189  userInput */\n  dup2\n    /* \"contracts/notbitcoin.sol\":171:177  Profit */\n  0x01\n    /* \"contracts/notbitcoin.sol\":171:189  Profit = userInput */\n  dup2\n  swap1\n  sstore\n  pop\n    /* \"contracts/notbitcoin.sol\":212:223  _notbitcoin */\n  dup1\n    /* \"contracts/notbitcoin.sol\":199:209  notbitcoin */\n  0x00\n    /* \"contracts/notbitcoin.sol\":199:223  notbitcoin = _notbitcoin */\n  swap1\n  dup1\n  mload\n  swap1\n  0x20\n  add\n  swap1\n  tag_6\n  swap3\n  swap2\n  swap1\n  tag_7\n  jump\t// in\ntag_6:\n  pop\n    /* \"contracts/notbitcoin.sol\":107:231  constructor(int userInput, string memory _notbitcoin) {... */\n  pop\n  pop\n    /* \"contracts/notbitcoin.sol\":34:542  contract notbitcoin {... */\n  jump(tag_8)\ntag_7:\n  dup3\n  dup1\n  sload\n  tag_9\n  swap1\n  tag_10\n  jump\t// in\ntag_9:\n  swap1\n  0x00\n  mstore\n  keccak256(0x00, 0x20)\n  swap1\n  0x1f\n  add\n  0x20\n  swap1\n  div\n  dup2\n  add\n  swap3\n  dup3\n  tag_12\n  jumpi\n  0x00\n  dup6\n  sstore\n  jump(tag_11)\ntag_12:\n  dup3\n  0x1f\n  lt\n  tag_13\n  jumpi\n  dup1\n  mload\n  not(0xff)\n  and\n  dup4\n  dup1\n  add\n  or\n  dup6\n  sstore\n  jump(tag_11)\ntag_13:\n  dup3\n  dup1\n  add\n  0x01\n  add\n  dup6\n  sstore\n  dup3\n  iszero\n  tag_11\n  jumpi\n  swap2\n  dup3\n  add\ntag_14:\n  dup3\n  dup2\n  gt\n  iszero\n  tag_15\n  jumpi\n  dup3\n  mload\n  dup3\n  sstore\n  swap2\n  0x20\n  add\n  swap2\n  swap1\n  0x01\n  add\n  swap1\n  jump(tag_14)\ntag_15:\ntag_11:\n  pop\n  swap1\n  pop\n  tag_16\n  swap2\n  swap1\n  tag_17\n  jump\t// in\ntag_16:\n  pop\n  swap1\n  jump\t// out\ntag_17:\ntag_18:\n  dup1\n  dup3\n  gt\n  iszero\n  tag_19\n  jumpi\n  0x00\n  dup2\n  0x00\n  swap1\n  sstore\n  pop\n  0x01\n  add\n  jump(tag_18)\ntag_19:\n  pop\n  swap1\n  jump\t// out\n    /* \"#utility.yul\":7:428   */\ntag_21:\n    /* \"#utility.yul\":96:101   */\n  0x00\n    /* \"#utility.yul\":121:187   */\n  tag_23\n    /* \"#utility.yul\":137:186   */\n  tag_24\n    /* \"#utility.yul\":179:185   */\n  dup5\n    /* \"#utility.yul\":137:186   */\n  tag_25\n  jump\t// in\ntag_24:\n    /* \"#utility.yul\":121:187   */\n  tag_26\n  jump\t// in\ntag_23:\n    /* \"#utility.yul\":112:187   */\n  swap1\n  pop\n    /* \"#utility.yul\":210:216   */\n  dup3\n    /* \"#utility.yul\":203:208   */\n  dup2\n    /* \"#utility.yul\":196:217   */\n  mstore\n    /* \"#utility.yul\":248:252   */\n  0x20\n    /* \"#utility.yul\":241:246   */\n  dup2\n    /* \"#utility.yul\":237:253   */\n  add\n    /* \"#utility.yul\":286:289   */\n  dup5\n    /* \"#utility.yul\":277:283   */\n  dup5\n    /* \"#utility.yul\":272:275   */\n  dup5\n    /* \"#utility.yul\":268:284   */\n  add\n    /* \"#utility.yul\":265:290   */\n  gt\n    /* \"#utility.yul\":262:374   */\n  iszero\n  tag_27\n  jumpi\n    /* \"#utility.yul\":293:372   */\n  tag_28\n  tag_29\n  jump\t// in\ntag_28:\n    /* \"#utility.yul\":262:374   */\ntag_27:\n    /* \"#utility.yul\":383:422   */\n  tag_30\n    /* \"#utility.yul\":415:421   */\n  dup5\n    /* \"#utility.yul\":410:413   */\n  dup3\n    /* \"#utility.yul\":405:408   */\n  dup6\n    /* \"#utility.yul\":383:422   */\n  tag_31\n  jump\t// in\ntag_30:\n    /* \"#utility.yul\":102:428   */\n  pop\n    /* \"#utility.yul\":7:428   */\n  swap4\n  swap3\n  pop\n  pop\n  pop\n  jump\t// out\n    /* \"#utility.yul\":434:575   */\ntag_32:\n    /* \"#utility.yul\":490:495   */\n  0x00\n    /* \"#utility.yul\":521:527   */\n  dup2\n    /* \"#utility.yul\":515:528   */\n  mload\n    /* \"#utility.yul\":506:528   */\n  swap1\n  pop\n    /* \"#utility.yul\":537:569   */\n  tag_34\n    /* \"#utility.yul\":563:568   */\n  dup2\n    /* \"#utility.yul\":537:569   */\n  tag_35\n  jump\t// in\ntag_34:\n    /* \"#utility.yul\":434:575   */\n  swap3\n  swap2\n  pop\n  pop\n  jump\t// out\n    /* \"#utility.yul\":595:950   */\ntag_36:\n    /* \"#utility.yul\":662:667   */\n  0x00\n    /* \"#utility.yul\":711:714   */\n  dup3\n    /* \"#utility.yul\":704:708   */\n  0x1f\n    /* \"#utility.yul\":696:702   */\n  dup4\n    /* \"#utility.yul\":692:709   */\n  add\n    /* \"#utility.yul\":688:715   */\n  slt\n    /* \"#utility.yul\":678:800   */\n  tag_38\n  jumpi\n    /* \"#utility.yul\":719:798   */\n  tag_39\n  tag_40\n  jump\t// in\ntag_39:\n    /* \"#utility.yul\":678:800   */\ntag_38:\n    /* \"#utility.yul\":829:835   */\n  dup2\n    /* \"#utility.yul\":823:836   */\n  mload\n    /* \"#utility.yul\":854:944   */\n  tag_41\n    /* \"#utility.yul\":940:943   */\n  dup5\n    /* \"#utility.yul\":932:938   */\n  dup3\n    /* \"#utility.yul\":925:929   */\n  0x20\n    /* \"#utility.yul\":917:923   */\n  dup7\n    /* \"#utility.yul\":913:930   */\n  add\n    /* \"#utility.yul\":854:944   */\n  tag_21\n  jump\t// in\ntag_41:\n    /* \"#utility.yul\":845:944   */\n  swap2\n  pop\n    /* \"#utility.yul\":668:950   */\n  pop\n    /* \"#utility.yul\":595:950   */\n  swap3\n  swap2\n  pop\n  pop\n  jump\t// out\n    /* \"#utility.yul\":956:1634   */\ntag_3:\n    /* \"#utility.yul\":1044:1050   */\n  0x00\n    /* \"#utility.yul\":1052:1058   */\n  dup1\n    /* \"#utility.yul\":1101:1103   */\n  0x40\n    /* \"#utility.yul\":1089:1098   */\n  dup4\n    /* \"#utility.yul\":1080:1087   */\n  dup6\n    /* \"#utility.yul\":1076:1099   */\n  sub\n    /* \"#utility.yul\":1072:1104   */\n  slt\n    /* \"#utility.yul\":1069:1188   */\n  iszero\n  tag_43\n  jumpi\n    /* \"#utility.yul\":1107:1186   */\n  tag_44\n  tag_45\n  jump\t// in\ntag_44:\n    /* \"#utility.yul\":1069:1188   */\ntag_43:\n    /* \"#utility.yul\":1227:1228   */\n  0x00\n    /* \"#utility.yul\":1252:1315   */\n  tag_46\n    /* \"#utility.yul\":1307:1314   */\n  dup6\n    /* \"#utility.yul\":1298:1304   */\n  dup3\n    /* \"#utility.yul\":1287:1296   */\n  dup7\n    /* \"#utility.yul\":1283:1305   */\n  add\n    /* \"#utility.yul\":1252:1315   */\n  tag_32\n  jump\t// in\ntag_46:\n    /* \"#utility.yul\":1242:1315   */\n  swap3\n  pop\n    /* \"#utility.yul\":1198:1325   */\n  pop\n    /* \"#utility.yul\":1385:1387   */\n  0x20\n    /* \"#utility.yul\":1374:1383   */\n  dup4\n    /* \"#utility.yul\":1370:1388   */\n  add\n    /* \"#utility.yul\":1364:1389   */\n  mload\n    /* \"#utility.yul\":1416:1434   */\n  0xffffffffffffffff\n    /* \"#utility.yul\":1408:1414   */\n  dup2\n    /* \"#utility.yul\":1405:1435   */\n  gt\n    /* \"#utility.yul\":1402:1519   */\n  iszero\n  tag_47\n  jumpi\n    /* \"#utility.yul\":1438:1517   */\n  tag_48\n  tag_49\n  jump\t// in\ntag_48:\n    /* \"#utility.yul\":1402:1519   */\ntag_47:\n    /* \"#utility.yul\":1543:1617   */\n  tag_50\n    /* \"#utility.yul\":1609:1616   */\n  dup6\n    /* \"#utility.yul\":1600:1606   */\n  dup3\n    /* \"#utility.yul\":1589:1598   */\n  dup7\n    /* \"#utility.yul\":1585:1607   */\n  add\n    /* \"#utility.yul\":1543:1617   */\n  tag_36\n  jump\t// in\ntag_50:\n    /* \"#utility.yul\":1533:1617   */\n  swap2\n  pop\n    /* \"#utility.yul\":1335:1627   */\n  pop\n    /* \"#utility.yul\":956:1634   */\n  swap3\n  pop\n  swap3\n  swap1\n  pop\n  jump\t// out\n    /* \"#utility.yul\":1640:1769   */\ntag_26:\n    /* \"#utility.yul\":1674:1680   */\n  0x00\n    /* \"#utility.yul\":1701:1721   */\n  tag_52\n  tag_53\n  jump\t// in\ntag_52:\n    /* \"#utility.yul\":1691:1721   */\n  swap1\n  pop\n    /* \"#utility.yul\":1730:1763   */\n  tag_54\n    /* \"#utility.yul\":1758:1762   */\n  dup3\n    /* \"#utility.yul\":1750:1756   */\n  dup3\n    /* \"#utility.yul\":1730:1763   */\n  tag_55\n  jump\t// in\ntag_54:\n    /* \"#utility.yul\":1640:1769   */\n  swap2\n  swap1\n  pop\n  jump\t// out\n    /* \"#utility.yul\":1775:1850   */\ntag_53:\n    /* \"#utility.yul\":1808:1814   */\n  0x00\n    /* \"#utility.yul\":1841:1843   */\n  0x40\n    /* \"#utility.yul\":1835:1844   */\n  mload\n    /* \"#utility.yul\":1825:1844   */\n  swap1\n  pop\n    /* \"#utility.yul\":1775:1850   */\n  swap1\n  jump\t// out\n    /* \"#utility.yul\":1856:2164   */\ntag_25:\n    /* \"#utility.yul\":1918:1922   */\n  0x00\n    /* \"#utility.yul\":2008:2026   */\n  0xffffffffffffffff\n    /* \"#utility.yul\":2000:2006   */\n  dup3\n    /* \"#utility.yul\":1997:2027   */\n  gt\n    /* \"#utility.yul\":1994:2050   */\n  iszero\n  tag_58\n  jumpi\n    /* \"#utility.yul\":2030:2048   */\n  tag_59\n  tag_60\n  jump\t// in\ntag_59:\n    /* \"#utility.yul\":1994:2050   */\ntag_58:\n    /* \"#utility.yul\":2068:2097   */\n  tag_61\n    /* \"#utility.yul\":2090:2096   */\n  dup3\n    /* \"#utility.yul\":2068:2097   */\n  tag_62\n  jump\t// in\ntag_61:\n    /* \"#utility.yul\":2060:2097   */\n  swap1\n  pop\n    /* \"#utility.yul\":2152:2156   */\n  0x20\n    /* \"#utility.yul\":2146:2150   */\n  dup2\n    /* \"#utility.yul\":2142:2157   */\n  add\n    /* \"#utility.yul\":2134:2157   */\n  swap1\n  pop\n    /* \"#utility.yul\":1856:2164   */\n  swap2\n  swap1\n  pop\n  jump\t// out\n    /* \"#utility.yul\":2170:2246   */\ntag_63:\n    /* \"#utility.yul\":2206:2213   */\n  0x00\n    /* \"#utility.yul\":2235:2240   */\n  dup2\n    /* \"#utility.yul\":2224:2240   */\n  swap1\n  pop\n    /* \"#utility.yul\":2170:2246   */\n  swap2\n  swap1\n  pop\n  jump\t// out\n    /* \"#utility.yul\":2252:2559   */\ntag_31:\n    /* \"#utility.yul\":2320:2321   */\n  0x00\n    /* \"#utility.yul\":2330:2443   */\ntag_66:\n    /* \"#utility.yul\":2344:2350   */\n  dup4\n    /* \"#utility.yul\":2341:2342   */\n  dup2\n    /* \"#utility.yul\":2338:2351   */\n  lt\n    /* \"#utility.yul\":2330:2443   */\n  iszero\n  tag_68\n  jumpi\n    /* \"#utility.yul\":2429:2430   */\n  dup1\n    /* \"#utility.yul\":2424:2427   */\n  dup3\n    /* \"#utility.yul\":2420:2431   */\n  add\n    /* \"#utility.yul\":2414:2432   */\n  mload\n    /* \"#utility.yul\":2410:2411   */\n  dup2\n    /* \"#utility.yul\":2405:2408   */\n  dup5\n    /* \"#utility.yul\":2401:2412   */\n  add\n    /* \"#utility.yul\":2394:2433   */\n  mstore\n    /* \"#utility.yul\":2366:2368   */\n  0x20\n    /* \"#utility.yul\":2363:2364   */\n  dup2\n    /* \"#utility.yul\":2359:2369   */\n  add\n    /* \"#utility.yul\":2354:2369   */\n  swap1\n  pop\n    /* \"#utility.yul\":2330:2443   */\n  jump(tag_66)\ntag_68:\n    /* \"#utility.yul\":2461:2467   */\n  dup4\n    /* \"#utility.yul\":2458:2459   */\n  dup2\n    /* \"#utility.yul\":2455:2468   */\n  gt\n    /* \"#utility.yul\":2452:2553   */\n  iszero\n  tag_69\n  jumpi\n    /* \"#utility.yul\":2541:2542   */\n  0x00\n    /* \"#utility.yul\":2532:2538   */\n  dup5\n    /* \"#utility.yul\":2527:2530   */\n  dup5\n    /* \"#utility.yul\":2523:2539   */\n  add\n    /* \"#utility.yul\":2516:2543   */\n  mstore\n    /* \"#utility.yul\":2452:2553   */\ntag_69:\n    /* \"#utility.yul\":2301:2559   */\n  pop\n    /* \"#utility.yul\":2252:2559   */\n  pop\n  pop\n  pop\n  jump\t// out\n    /* \"#utility.yul\":2565:2885   */\ntag_10:\n    /* \"#utility.yul\":2609:2615   */\n  0x00\n    /* \"#utility.yul\":2646:2647   */\n  0x02\n    /* \"#utility.yul\":2640:2644   */\n  dup3\n    /* \"#utility.yul\":2636:2648   */\n  div\n    /* \"#utility.yul\":2626:2648   */\n  swap1\n  pop\n    /* \"#utility.yul\":2693:2694   */\n  0x01\n    /* \"#utility.yul\":2687:2691   */\n  dup3\n    /* \"#utility.yul\":2683:2695   */\n  and\n    /* \"#utility.yul\":2714:2732   */\n  dup1\n    /* \"#utility.yul\":2704:2785   */\n  tag_71\n  jumpi\n    /* \"#utility.yul\":2770:2774   */\n  0x7f\n    /* \"#utility.yul\":2762:2768   */\n  dup3\n    /* \"#utility.yul\":2758:2775   */\n  and\n    /* \"#utility.yul\":2748:2775   */\n  swap2\n  pop\n    /* \"#utility.yul\":2704:2785   */\ntag_71:\n    /* \"#utility.yul\":2832:2834   */\n  0x20\n    /* \"#utility.yul\":2824:2830   */\n  dup3\n    /* \"#utility.yul\":2821:2835   */\n  lt\n    /* \"#utility.yul\":2801:2819   */\n  dup2\n    /* \"#utility.yul\":2798:2836   */\n  eq\n    /* \"#utility.yul\":2795:2879   */\n  iszero\n  tag_72\n  jumpi\n    /* \"#utility.yul\":2851:2869   */\n  tag_73\n  tag_74\n  jump\t// in\ntag_73:\n    /* \"#utility.yul\":2795:2879   */\ntag_72:\n    /* \"#utility.yul\":2616:2885   */\n  pop\n    /* \"#utility.yul\":2565:2885   */\n  swap2\n  swap1\n  pop\n  jump\t// out\n    /* \"#utility.yul\":2891:3172   */\ntag_55:\n    /* \"#utility.yul\":2974:3001   */\n  tag_76\n    /* \"#utility.yul\":2996:3000   */\n  dup3\n    /* \"#utility.yul\":2974:3001   */\n  tag_62\n  jump\t// in\ntag_76:\n    /* \"#utility.yul\":2966:2972   */\n  dup2\n    /* \"#utility.yul\":2962:3002   */\n  add\n    /* \"#utility.yul\":3104:3110   */\n  dup2\n    /* \"#utility.yul\":3092:3102   */\n  dup2\n    /* \"#utility.yul\":3089:3111   */\n  lt\n    /* \"#utility.yul\":3068:3086   */\n  0xffffffffffffffff\n    /* \"#utility.yul\":3056:3066   */\n  dup3\n    /* \"#utility.yul\":3053:3087   */\n  gt\n    /* \"#utility.yul\":3050:3112   */\n  or\n    /* \"#utility.yul\":3047:3135   */\n  iszero\n  tag_77\n  jumpi\n    /* \"#utility.yul\":3115:3133   */\n  tag_78\n  tag_60\n  jump\t// in\ntag_78:\n    /* \"#utility.yul\":3047:3135   */\ntag_77:\n    /* \"#utility.yul\":3155:3165   */\n  dup1\n    /* \"#utility.yul\":3151:3153   */\n  0x40\n    /* \"#utility.yul\":3144:3166   */\n  mstore\n    /* \"#utility.yul\":2934:3172   */\n  pop\n    /* \"#utility.yul\":2891:3172   */\n  pop\n  pop\n  jump\t// out\n    /* \"#utility.yul\":3178:3358   */\ntag_74:\n    /* \"#utility.yul\":3226:3303   */\n  0x4e487b7100000000000000000000000000000000000000000000000000000000\n    /* \"#utility.yul\":3223:3224   */\n  0x00\n    /* \"#utility.yul\":3216:3304   */\n  mstore\n    /* \"#utility.yul\":3323:3327   */\n  0x22\n    /* \"#utility.yul\":3320:3321   */\n  0x04\n    /* \"#utility.yul\":3313:3328   */\n  mstore\n    /* \"#utility.yul\":3347:3351   */\n  0x24\n    /* \"#utility.yul\":3344:3345   */\n  0x00\n    /* \"#utility.yul\":3337:3352   */\n  revert\n    /* \"#utility.yul\":3364:3544   */\ntag_60:\n    /* \"#utility.yul\":3412:3489   */\n  0x4e487b7100000000000000000000000000000000000000000000000000000000\n    /* \"#utility.yul\":3409:3410   */\n  0x00\n    /* \"#utility.yul\":3402:3490   */\n  mstore\n    /* \"#utility.yul\":3509:3513   */\n  0x41\n    /* \"#utility.yul\":3506:3507   */\n  0x04\n    /* \"#utility.yul\":3499:3514   */\n  mstore\n    /* \"#utility.yul\":3533:3537   */\n  0x24\n    /* \"#utility.yul\":3530:3531   */\n  0x00\n    /* \"#utility.yul\":3523:3538   */\n  revert\n    /* \"#utility.yul\":3550:3667   */\ntag_40:\n    /* \"#utility.yul\":3659:3660   */\n  0x00\n    /* \"#utility.yul\":3656:3657   */\n  dup1\n    /* \"#utility.yul\":3649:3661   */\n  revert\n    /* \"#utility.yul\":3673:3790   */\ntag_29:\n    /* \"#utility.yul\":3782:3783   */\n  0x00\n    /* \"#utility.yul\":3779:3780   */\n  dup1\n    /* \"#utility.yul\":3772:3784   */\n  revert\n    /* \"#utility.yul\":3796:3913   */\ntag_49:\n    /* \"#utility.yul\":3905:3906   */\n  0x00\n    /* \"#utility.yul\":3902:3903   */\n  dup1\n    /* \"#utility.yul\":3895:3907   */\n  revert\n    /* \"#utility.yul\":3919:4036   */\ntag_45:\n    /* \"#utility.yul\":4028:4029   */\n  0x00\n    /* \"#utility.yul\":4025:4026   */\n  dup1\n    /* \"#utility.yul\":4018:4030   */\n  revert\n    /* \"#utility.yul\":4042:4144   */\ntag_62:\n    /* \"#utility.yul\":4083:4089   */\n  0x00\n    /* \"#utility.yul\":4134:4136   */\n  0x1f\n    /* \"#utility.yul\":4130:4137   */\n  not\n    /* \"#utility.yul\":4125:4127   */\n  0x1f\n    /* \"#utility.yul\":4118:4123   */\n  dup4\n    /* \"#utility.yul\":4114:4128   */\n  add\n    /* \"#utility.yul\":4110:4138   */\n  and\n    /* \"#utility.yul\":4100:4138   */\n  swap1\n  pop\n    /* \"#utility.yul\":4042:4144   */\n  swap2\n  swap1\n  pop\n  jump\t// out\n    /* \"#utility.yul\":4150:4270   */\ntag_35:\n    /* \"#utility.yul\":4222:4245   */\n  tag_87\n    /* \"#utility.yul\":4239:4244   */\n  dup2\n    /* \"#utility.yul\":4222:4245   */\n  tag_63\n  jump\t// in\ntag_87:\n    /* \"#utility.yul\":4215:4220   */\n  dup2\n    /* \"#utility.yul\":4212:4246   */\n  eq\n    /* \"#utility.yul\":4202:4264   */\n  tag_88\n  jumpi\n    /* \"#utility.yul\":4260:4261   */\n  0x00\n    /* \"#utility.yul\":4257:4258   */\n  dup1\n    /* \"#utility.yul\":4250:4262   */\n  revert\n    /* \"#utility.yul\":4202:4264   */\ntag_88:\n    /* \"#utility.yul\":4150:4270   */\n  pop\n  jump\t// out\n    /* \"contracts/notbitcoin.sol\":34:542  contract notbitcoin {... */\ntag_8:\n  dataSize(sub_0)\n  dup1\n  dataOffset(sub_0)\n  0x00\n  codecopy\n  0x00\n  return\nstop\n\nsub_0: assembly {\n        /* \"contracts/notbitcoin.sol\":34:542  contract notbitcoin {... */\n      mstore(0x40, 0x80)\n      callvalue\n      dup1\n      iszero\n      tag_1\n      jumpi\n      0x00\n      dup1\n      revert\n    tag_1:\n      pop\n      jumpi(tag_2, lt(calldatasize, 0x04))\n      shr(0xe0, calldataload(0x00))\n      dup1\n      0x438e65cf\n      eq\n      tag_3\n      jumpi\n      dup1\n      0x590e1ae3\n      eq\n      tag_4\n      jumpi\n      dup1\n      0x699e5b6d\n      eq\n      tag_5\n      jumpi\n      dup1\n      0xa6f2ae3a\n      eq\n      tag_6\n      jumpi\n    tag_2:\n      0x00\n      dup1\n      revert\n        /* \"contracts/notbitcoin.sol\":237:311  function viewProfits() public view returns (int){... */\n    tag_3:\n      tag_7\n      tag_8\n      jump\t// in\n    tag_7:\n      mload(0x40)\n      tag_9\n      swap2\n      swap1\n      tag_10\n      jump\t// in\n    tag_9:\n      mload(0x40)\n      dup1\n      swap2\n      sub\n      swap1\n      return\n        /* \"contracts/notbitcoin.sol\":374:428  function refund() public {... */\n    tag_4:\n      tag_11\n      tag_12\n      jump\t// in\n    tag_11:\n      stop\n        /* \"contracts/notbitcoin.sol\":83:100  int public Profit */\n    tag_5:\n      tag_13\n      tag_14\n      jump\t// in\n    tag_13:\n      mload(0x40)\n      tag_15\n      swap2\n      swap1\n      tag_10\n      jump\t// in\n    tag_15:\n      mload(0x40)\n      dup1\n      swap2\n      sub\n      swap1\n      return\n        /* \"contracts/notbitcoin.sol\":317:367  function buy() public {... */\n    tag_6:\n      tag_16\n      tag_17\n      jump\t// in\n    tag_16:\n      stop\n        /* \"contracts/notbitcoin.sol\":237:311  function viewProfits() public view returns (int){... */\n    tag_8:\n        /* \"contracts/notbitcoin.sol\":281:284  int */\n      0x00\n        /* \"contracts/notbitcoin.sol\":300:306  Profit */\n      sload(0x01)\n        /* \"contracts/notbitcoin.sol\":293:306  return Profit */\n      swap1\n      pop\n        /* \"contracts/notbitcoin.sol\":237:311  function viewProfits() public view returns (int){... */\n      swap1\n      jump\t// out\n        /* \"contracts/notbitcoin.sol\":374:428  function refund() public {... */\n    tag_12:\n        /* \"contracts/notbitcoin.sol\":420:421  1 */\n      0x01\n        /* \"contracts/notbitcoin.sol\":410:416  Profit */\n      dup1\n      0x00\n        /* \"contracts/notbitcoin.sol\":410:421  Profit -= 1 */\n      dup3\n      dup3\n      sload\n      tag_20\n      swap2\n      swap1\n      tag_21\n      jump\t// in\n    tag_20:\n      swap3\n      pop\n      pop\n      dup2\n      swap1\n      sstore\n      pop\n        /* \"contracts/notbitcoin.sol\":374:428  function refund() public {... */\n      jump\t// out\n        /* \"contracts/notbitcoin.sol\":83:100  int public Profit */\n    tag_14:\n      sload(0x01)\n      dup2\n      jump\t// out\n        /* \"contracts/notbitcoin.sol\":317:367  function buy() public {... */\n    tag_17:\n        /* \"contracts/notbitcoin.sol\":359:360  1 */\n      0x01\n        /* \"contracts/notbitcoin.sol\":349:355  Profit */\n      dup1\n      0x00\n        /* \"contracts/notbitcoin.sol\":349:360  Profit += 1 */\n      dup3\n      dup3\n      sload\n      tag_23\n      swap2\n      swap1\n      tag_24\n      jump\t// in\n    tag_23:\n      swap3\n      pop\n      pop\n      dup2\n      swap1\n      sstore\n      pop\n        /* \"contracts/notbitcoin.sol\":317:367  function buy() public {... */\n      jump\t// out\n        /* \"#utility.yul\":7:122   */\n    tag_26:\n        /* \"#utility.yul\":92:115   */\n      tag_28\n        /* \"#utility.yul\":109:114   */\n      dup2\n        /* \"#utility.yul\":92:115   */\n      tag_29\n      jump\t// in\n    tag_28:\n        /* \"#utility.yul\":87:90   */\n      dup3\n        /* \"#utility.yul\":80:116   */\n      mstore\n        /* \"#utility.yul\":7:122   */\n      pop\n      pop\n      jump\t// out\n        /* \"#utility.yul\":128:346   */\n    tag_10:\n        /* \"#utility.yul\":219:223   */\n      0x00\n        /* \"#utility.yul\":257:259   */\n      0x20\n        /* \"#utility.yul\":246:255   */\n      dup3\n        /* \"#utility.yul\":242:260   */\n      add\n        /* \"#utility.yul\":234:260   */\n      swap1\n      pop\n        /* \"#utility.yul\":270:339   */\n      tag_31\n        /* \"#utility.yul\":336:337   */\n      0x00\n        /* \"#utility.yul\":325:334   */\n      dup4\n        /* \"#utility.yul\":321:338   */\n      add\n        /* \"#utility.yul\":312:318   */\n      dup5\n        /* \"#utility.yul\":270:339   */\n      tag_26\n      jump\t// in\n    tag_31:\n        /* \"#utility.yul\":128:346   */\n      swap3\n      swap2\n      pop\n      pop\n      jump\t// out\n        /* \"#utility.yul\":352:877   */\n    tag_24:\n        /* \"#utility.yul\":391:394   */\n      0x00\n        /* \"#utility.yul\":410:429   */\n      tag_33\n        /* \"#utility.yul\":427:428   */\n      dup3\n        /* \"#utility.yul\":410:429   */\n      tag_29\n      jump\t// in\n    tag_33:\n        /* \"#utility.yul\":405:429   */\n      swap2\n      pop\n        /* \"#utility.yul\":443:462   */\n      tag_34\n        /* \"#utility.yul\":460:461   */\n      dup4\n        /* \"#utility.yul\":443:462   */\n      tag_29\n      jump\t// in\n    tag_34:\n        /* \"#utility.yul\":438:462   */\n      swap3\n      pop\n        /* \"#utility.yul\":631:632   */\n      dup2\n        /* \"#utility.yul\":563:629   */\n      0x7fffffffffffffffffffffffffffffffffffffffffffffffffffffffffffffff\n        /* \"#utility.yul\":559:633   */\n      sub\n        /* \"#utility.yul\":556:557   */\n      dup4\n        /* \"#utility.yul\":552:634   */\n      sgt\n        /* \"#utility.yul\":547:548   */\n      0x00\n        /* \"#utility.yul\":544:545   */\n      dup4\n        /* \"#utility.yul\":540:549   */\n      slt\n        /* \"#utility.yul\":533:550   */\n      iszero\n        /* \"#utility.yul\":529:635   */\n      and\n        /* \"#utility.yul\":526:658   */\n      iszero\n      tag_35\n      jumpi\n        /* \"#utility.yul\":638:656   */\n      tag_36\n      tag_37\n      jump\t// in\n    tag_36:\n        /* \"#utility.yul\":526:658   */\n    tag_35:\n        /* \"#utility.yul\":818:819   */\n      dup2\n        /* \"#utility.yul\":750:816   */\n      0x8000000000000000000000000000000000000000000000000000000000000000\n        /* \"#utility.yul\":746:820   */\n      sub\n        /* \"#utility.yul\":743:744   */\n      dup4\n        /* \"#utility.yul\":739:821   */\n      slt\n        /* \"#utility.yul\":735:736   */\n      0x00\n        /* \"#utility.yul\":732:733   */\n      dup4\n        /* \"#utility.yul\":728:737   */\n      slt\n        /* \"#utility.yul\":724:822   */\n      and\n        /* \"#utility.yul\":721:845   */\n      iszero\n      tag_38\n      jumpi\n        /* \"#utility.yul\":825:843   */\n      tag_39\n      tag_37\n      jump\t// in\n    tag_39:\n        /* \"#utility.yul\":721:845   */\n    tag_38:\n        /* \"#utility.yul\":869:870   */\n      dup3\n        /* \"#utility.yul\":866:867   */\n      dup3\n        /* \"#utility.yul\":862:871   */\n      add\n        /* \"#utility.yul\":855:871   */\n      swap1\n      pop\n        /* \"#utility.yul\":352:877   */\n      swap3\n      swap2\n      pop\n      pop\n      jump\t// out\n        /* \"#utility.yul\":883:1410   */\n    tag_21:\n        /* \"#utility.yul\":922:926   */\n      0x00\n        /* \"#utility.yul\":942:961   */\n      tag_41\n        /* \"#utility.yul\":959:960   */\n      dup3\n        /* \"#utility.yul\":942:961   */\n      tag_29\n      jump\t// in\n    tag_41:\n        /* \"#utility.yul\":937:961   */\n      swap2\n      pop\n        /* \"#utility.yul\":975:994   */\n      tag_42\n        /* \"#utility.yul\":992:993   */\n      dup4\n        /* \"#utility.yul\":975:994   */\n      tag_29\n      jump\t// in\n    tag_42:\n        /* \"#utility.yul\":970:994   */\n      swap3\n      pop\n        /* \"#utility.yul\":1164:1165   */\n      dup3\n        /* \"#utility.yul\":1096:1162   */\n      0x8000000000000000000000000000000000000000000000000000000000000000\n        /* \"#utility.yul\":1092:1166   */\n      add\n        /* \"#utility.yul\":1089:1090   */\n      dup3\n        /* \"#utility.yul\":1085:1167   */\n      slt\n        /* \"#utility.yul\":1080:1081   */\n      0x00\n        /* \"#utility.yul\":1077:1078   */\n      dup5\n        /* \"#utility.yul\":1073:1082   */\n      slt\n        /* \"#utility.yul\":1066:1083   */\n      iszero\n        /* \"#utility.yul\":1062:1168   */\n      and\n        /* \"#utility.yul\":1059:1191   */\n      iszero\n      tag_43\n      jumpi\n        /* \"#utility.yul\":1171:1189   */\n      tag_44\n      tag_37\n      jump\t// in\n    tag_44:\n        /* \"#utility.yul\":1059:1191   */\n    tag_43:\n        /* \"#utility.yul\":1350:1351   */\n      dup3\n        /* \"#utility.yul\":1282:1348   */\n      0x7fffffffffffffffffffffffffffffffffffffffffffffffffffffffffffffff\n        /* \"#utility.yul\":1278:1352   */\n      add\n        /* \"#utility.yul\":1275:1276   */\n      dup3\n        /* \"#utility.yul\":1271:1353   */\n      sgt\n        /* \"#utility.yul\":1267:1268   */\n      0x00\n        /* \"#utility.yul\":1264:1265   */\n      dup5\n        /* \"#utility.yul\":1260:1269   */\n      slt\n        /* \"#utility.yul\":1256:1354   */\n      and\n        /* \"#utility.yul\":1253:1377   */\n      iszero\n      tag_45\n      jumpi\n        /* \"#utility.yul\":1357:1375   */\n      tag_46\n      tag_37\n      jump\t// in\n    tag_46:\n        /* \"#utility.yul\":1253:1377   */\n    tag_45:\n        /* \"#utility.yul\":1402:1403   */\n      dup3\n        /* \"#utility.yul\":1399:1400   */\n      dup3\n        /* \"#utility.yul\":1395:1404   */\n      sub\n        /* \"#utility.yul\":1387:1404   */\n      swap1\n      pop\n        /* \"#utility.yul\":883:1410   */\n      swap3\n      swap2\n      pop\n      pop\n      jump\t// out\n        /* \"#utility.yul\":1416:1492   */\n    tag_29:\n        /* \"#utility.yul\":1452:1459   */\n      0x00\n        /* \"#utility.yul\":1481:1486   */\n      dup2\n        /* \"#utility.yul\":1470:1486   */\n      swap1\n      pop\n        /* \"#utility.yul\":1416:1492   */\n      swap2\n      swap1\n      pop\n      jump\t// out\n        /* \"#utility.yul\":1498:1678   */\n    tag_37:\n        /* \"#utility.yul\":1546:1623   */\n      0x4e487b7100000000000000000000000000000000000000000000000000000000\n        /* \"#utility.yul\":1543:1544   */\n      0x00\n        /* \"#utility.yul\":1536:1624   */\n      mstore\n        /* \"#utility.yul\":1643:1647   */\n      0x11\n        /* \"#utility.yul\":1640:1641   */\n      0x04\n        /* \"#utility.yul\":1633:1648   */\n      mstore\n        /* \"#utility.yul\":1667:1671   */\n      0x24\n        /* \"#utility.yul\":1664:1665   */\n      0x00\n        /* \"#utility.yul\":1657:1672   */\n      revert\n\n    auxdata: 0xa264697066735822122071d644cef50f50275e95a04d38fcf1547cc919c18af51f7df1a985f0f839803c64736f6c63430008070033\n}\n",
				"bytecode": {
					"linkReferences": {},
					"object": "608060405234801561001057600080fd5b506040516106223803806106228339818101604052810190610032919061017f565b81600181905550806000908051906020019061004f929190610057565b50505061036b565b8280546100639061026e565b90600052602060002090601f01602090048101928261008557600085556100cc565b82601f1061009e57805160ff19168380011785556100cc565b828001600101855582156100cc579182015b828111156100cb5782518255916020019190600101906100b0565b5b5090506100d991906100dd565b5090565b5b808211156100f65760008160009055506001016100de565b5090565b600061010d61010884610200565b6101db565b90508281526020810184848401111561012957610128610334565b5b61013484828561023b565b509392505050565b60008151905061014b81610354565b92915050565b600082601f8301126101665761016561032f565b5b81516101768482602086016100fa565b91505092915050565b600080604083850312156101965761019561033e565b5b60006101a48582860161013c565b925050602083015167ffffffffffffffff8111156101c5576101c4610339565b5b6101d185828601610151565b9150509250929050565b60006101e56101f6565b90506101f182826102a0565b919050565b6000604051905090565b600067ffffffffffffffff82111561021b5761021a610300565b5b61022482610343565b9050602081019050919050565b6000819050919050565b60005b8381101561025957808201518184015260208101905061023e565b83811115610268576000848401525b50505050565b6000600282049050600182168061028657607f821691505b6020821081141561029a576102996102d1565b5b50919050565b6102a982610343565b810181811067ffffffffffffffff821117156102c8576102c7610300565b5b80604052505050565b7f4e487b7100000000000000000000000000000000000000000000000000000000600052602260045260246000fd5b7f4e487b7100000000000000000000000000000000000000000000000000000000600052604160045260246000fd5b600080fd5b600080fd5b600080fd5b600080fd5b6000601f19601f8301169050919050565b61035d81610231565b811461036857600080fd5b50565b6102a88061037a6000396000f3fe608060405234801561001057600080fd5b506004361061004c5760003560e01c8063438e65cf14610051578063590e1ae31461006f578063699e5b6d14610079578063a6f2ae3a14610097575b600080fd5b6100596100a1565b60405161006691906100f6565b60405180910390f35b6100776100ab565b005b6100816100c6565b60405161008e91906100f6565b60405180910390f35b61009f6100cc565b005b6000600154905090565b60018060008282546100bd91906101a5565b92505081905550565b60015481565b60018060008282546100de9190610111565b92505081905550565b6100f081610239565b82525050565b600060208201905061010b60008301846100e7565b92915050565b600061011c82610239565b915061012783610239565b9250817f7fffffffffffffffffffffffffffffffffffffffffffffffffffffffffffffff0383136000831215161561016257610161610243565b5b817f800000000000000000000000000000000000000000000000000000000000000003831260008312161561019a57610199610243565b5b828201905092915050565b60006101b082610239565b91506101bb83610239565b9250827f8000000000000000000000000000000000000000000000000000000000000000018212600084121516156101f6576101f5610243565b5b827f7fffffffffffffffffffffffffffffffffffffffffffffffffffffffffffffff01821360008412161561022e5761022d610243565b5b828203905092915050565b6000819050919050565b7f4e487b7100000000000000000000000000000000000000000000000000000000600052601160045260246000fdfea264697066735822122071d644cef50f50275e95a04d38fcf1547cc919c18af51f7df1a985f0f839803c64736f6c63430008070033",
					"opcodes": "PUSH1 0x80 PUSH1 0x40 MSTORE CALLVALUE DUP1 ISZERO PUSH2 0x10 JUMPI PUSH1 0x0 DUP1 REVERT JUMPDEST POP PUSH1 0x40 MLOAD PUSH2 0x622 CODESIZE SUB DUP1 PUSH2 0x622 DUP4 CODECOPY DUP2 DUP2 ADD PUSH1 0x40 MSTORE DUP2 ADD SWAP1 PUSH2 0x32 SWAP2 SWAP1 PUSH2 0x17F JUMP JUMPDEST DUP2 PUSH1 0x1 DUP2 SWAP1 SSTORE POP DUP1 PUSH1 0x0 SWAP1 DUP1 MLOAD SWAP1 PUSH1 0x20 ADD SWAP1 PUSH2 0x4F SWAP3 SWAP2 SWAP1 PUSH2 0x57 JUMP JUMPDEST POP POP POP PUSH2 0x36B JUMP JUMPDEST DUP3 DUP1 SLOAD PUSH2 0x63 SWAP1 PUSH2 0x26E JUMP JUMPDEST SWAP1 PUSH1 0x0 MSTORE PUSH1 0x20 PUSH1 0x0 KECCAK256 SWAP1 PUSH1 0x1F ADD PUSH1 0x20 SWAP1 DIV DUP2 ADD SWAP3 DUP3 PUSH2 0x85 JUMPI PUSH1 0x0 DUP6 SSTORE PUSH2 0xCC JUMP JUMPDEST DUP3 PUSH1 0x1F LT PUSH2 0x9E JUMPI DUP1 MLOAD PUSH1 0xFF NOT AND DUP4 DUP1 ADD OR DUP6 SSTORE PUSH2 0xCC JUMP JUMPDEST DUP3 DUP1 ADD PUSH1 0x1 ADD DUP6 SSTORE DUP3 ISZERO PUSH2 0xCC JUMPI SWAP2 DUP3 ADD JUMPDEST DUP3 DUP2 GT ISZERO PUSH2 0xCB JUMPI DUP3 MLOAD DUP3 SSTORE SWAP2 PUSH1 0x20 ADD SWAP2 SWAP1 PUSH1 0x1 ADD SWAP1 PUSH2 0xB0 JUMP JUMPDEST JUMPDEST POP SWAP1 POP PUSH2 0xD9 SWAP2 SWAP1 PUSH2 0xDD JUMP JUMPDEST POP SWAP1 JUMP JUMPDEST JUMPDEST DUP1 DUP3 GT ISZERO PUSH2 0xF6 JUMPI PUSH1 0x0 DUP2 PUSH1 0x0 SWAP1 SSTORE POP PUSH1 0x1 ADD PUSH2 0xDE JUMP JUMPDEST POP SWAP1 JUMP JUMPDEST PUSH1 0x0 PUSH2 0x10D PUSH2 0x108 DUP5 PUSH2 0x200 JUMP JUMPDEST PUSH2 0x1DB JUMP JUMPDEST SWAP1 POP DUP3 DUP2 MSTORE PUSH1 0x20 DUP2 ADD DUP5 DUP5 DUP5 ADD GT ISZERO PUSH2 0x129 JUMPI PUSH2 0x128 PUSH2 0x334 JUMP JUMPDEST JUMPDEST PUSH2 0x134 DUP5 DUP3 DUP6 PUSH2 0x23B JUMP JUMPDEST POP SWAP4 SWAP3 POP POP POP JUMP JUMPDEST PUSH1 0x0 DUP2 MLOAD SWAP1 POP PUSH2 0x14B DUP2 PUSH2 0x354 JUMP JUMPDEST SWAP3 SWAP2 POP POP JUMP JUMPDEST PUSH1 0x0 DUP3 PUSH1 0x1F DUP4 ADD SLT PUSH2 0x166 JUMPI PUSH2 0x165 PUSH2 0x32F JUMP JUMPDEST JUMPDEST DUP2 MLOAD PUSH2 0x176 DUP5 DUP3 PUSH1 0x20 DUP7 ADD PUSH2 0xFA JUMP JUMPDEST SWAP2 POP POP SWAP3 SWAP2 POP POP JUMP JUMPDEST PUSH1 0x0 DUP1 PUSH1 0x40 DUP4 DUP6 SUB SLT ISZERO PUSH2 0x196 JUMPI PUSH2 0x195 PUSH2 0x33E JUMP JUMPDEST JUMPDEST PUSH1 0x0 PUSH2 0x1A4 DUP6 DUP3 DUP7 ADD PUSH2 0x13C JUMP JUMPDEST SWAP3 POP POP PUSH1 0x20 DUP4 ADD MLOAD PUSH8 0xFFFFFFFFFFFFFFFF DUP2 GT ISZERO PUSH2 0x1C5 JUMPI PUSH2 0x1C4 PUSH2 0x339 JUMP JUMPDEST JUMPDEST PUSH2 0x1D1 DUP6 DUP3 DUP7 ADD PUSH2 0x151 JUMP JUMPDEST SWAP2 POP POP SWAP3 POP SWAP3 SWAP1 POP JUMP JUMPDEST PUSH1 0x0 PUSH2 0x1E5 PUSH2 0x1F6 JUMP JUMPDEST SWAP1 POP PUSH2 0x1F1 DUP3 DUP3 PUSH2 0x2A0 JUMP JUMPDEST SWAP2 SWAP1 POP JUMP JUMPDEST PUSH1 0x0 PUSH1 0x40 MLOAD SWAP1 POP SWAP1 JUMP JUMPDEST PUSH1 0x0 PUSH8 0xFFFFFFFFFFFFFFFF DUP3 GT ISZERO PUSH2 0x21B JUMPI PUSH2 0x21A PUSH2 0x300 JUMP JUMPDEST JUMPDEST PUSH2 0x224 DUP3 PUSH2 0x343 JUMP JUMPDEST SWAP1 POP PUSH1 0x20 DUP2 ADD SWAP1 POP SWAP2 SWAP1 POP JUMP JUMPDEST PUSH1 0x0 DUP2 SWAP1 POP SWAP2 SWAP1 POP JUMP JUMPDEST PUSH1 0x0 JUMPDEST DUP4 DUP2 LT ISZERO PUSH2 0x259 JUMPI DUP1 DUP3 ADD MLOAD DUP2 DUP5 ADD MSTORE PUSH1 0x20 DUP2 ADD SWAP1 POP PUSH2 0x23E JUMP JUMPDEST DUP4 DUP2 GT ISZERO PUSH2 0x268 JUMPI PUSH1 0x0 DUP5 DUP5 ADD MSTORE JUMPDEST POP POP POP POP JUMP JUMPDEST PUSH1 0x0 PUSH1 0x2 DUP3 DIV SWAP1 POP PUSH1 0x1 DUP3 AND DUP1 PUSH2 0x286 JUMPI PUSH1 0x7F DUP3 AND SWAP2 POP JUMPDEST PUSH1 0x20 DUP3 LT DUP2 EQ ISZERO PUSH2 0x29A JUMPI PUSH2 0x299 PUSH2 0x2D1 JUMP JUMPDEST JUMPDEST POP SWAP2 SWAP1 POP JUMP JUMPDEST PUSH2 0x2A9 DUP3 PUSH2 0x343 JUMP JUMPDEST DUP2 ADD DUP2 DUP2 LT PUSH8 0xFFFFFFFFFFFFFFFF DUP3 GT OR ISZERO PUSH2 0x2C8 JUMPI PUSH2 0x2C7 PUSH2 0x300 JUMP JUMPDEST JUMPDEST DUP1 PUSH1 0x40 MSTORE POP POP POP JUMP JUMPDEST PUSH32 0x4E487B7100000000000000000000000000000000000000000000000000000000 PUSH1 0x0 MSTORE PUSH1 0x22 PUSH1 0x4 MSTORE PUSH1 0x24 PUSH1 0x0 REVERT JUMPDEST PUSH32 0x4E487B7100000000000000000000000000000000000000000000000000000000 PUSH1 0x0 MSTORE PUSH1 0x41 PUSH1 0x4 MSTORE PUSH1 0x24 PUSH1 0x0 REVERT JUMPDEST PUSH1 0x0 DUP1 REVERT JUMPDEST PUSH1 0x0 DUP1 REVERT JUMPDEST PUSH1 0x0 DUP1 REVERT JUMPDEST PUSH1 0x0 DUP1 REVERT JUMPDEST PUSH1 0x0 PUSH1 0x1F NOT PUSH1 0x1F DUP4 ADD AND SWAP1 POP SWAP2 SWAP1 POP JUMP JUMPDEST PUSH2 0x35D DUP2 PUSH2 0x231 JUMP JUMPDEST DUP2 EQ PUSH2 0x368 JUMPI PUSH1 0x0 DUP1 REVERT JUMPDEST POP JUMP JUMPDEST PUSH2 0x2A8 DUP1 PUSH2 0x37A PUSH1 0x0 CODECOPY PUSH1 0x0 RETURN INVALID PUSH1 0x80 PUSH1 0x40 MSTORE CALLVALUE DUP1 ISZERO PUSH2 0x10 JUMPI PUSH1 0x0 DUP1 REVERT JUMPDEST POP PUSH1 0x4 CALLDATASIZE LT PUSH2 0x4C JUMPI PUSH1 0x0 CALLDATALOAD PUSH1 0xE0 SHR DUP1 PUSH4 0x438E65CF EQ PUSH2 0x51 JUMPI DUP1 PUSH4 0x590E1AE3 EQ PUSH2 0x6F JUMPI DUP1 PUSH4 0x699E5B6D EQ PUSH2 0x79 JUMPI DUP1 PUSH4 0xA6F2AE3A EQ PUSH2 0x97 JUMPI JUMPDEST PUSH1 0x0 DUP1 REVERT JUMPDEST PUSH2 0x59 PUSH2 0xA1 JUMP JUMPDEST PUSH1 0x40 MLOAD PUSH2 0x66 SWAP2 SWAP1 PUSH2 0xF6 JUMP JUMPDEST PUSH1 0x40 MLOAD DUP1 SWAP2 SUB SWAP1 RETURN JUMPDEST PUSH2 0x77 PUSH2 0xAB JUMP JUMPDEST STOP JUMPDEST PUSH2 0x81 PUSH2 0xC6 JUMP JUMPDEST PUSH1 0x40 MLOAD PUSH2 0x8E SWAP2 SWAP1 PUSH2 0xF6 JUMP JUMPDEST PUSH1 0x40 MLOAD DUP1 SWAP2 SUB SWAP1 RETURN JUMPDEST PUSH2 0x9F PUSH2 0xCC JUMP JUMPDEST STOP JUMPDEST PUSH1 0x0 PUSH1 0x1 SLOAD SWAP1 POP SWAP1 JUMP JUMPDEST PUSH1 0x1 DUP1 PUSH1 0x0 DUP3 DUP3 SLOAD PUSH2 0xBD SWAP2 SWAP1 PUSH2 0x1A5 JUMP JUMPDEST SWAP3 POP POP DUP2 SWAP1 SSTORE POP JUMP JUMPDEST PUSH1 0x1 SLOAD DUP2 JUMP JUMPDEST PUSH1 0x1 DUP1 PUSH1 0x0 DUP3 DUP3 SLOAD PUSH2 0xDE SWAP2 SWAP1 PUSH2 0x111 JUMP JUMPDEST SWAP3 POP POP DUP2 SWAP1 SSTORE POP JUMP JUMPDEST PUSH2 0xF0 DUP2 PUSH2 0x239 JUMP JUMPDEST DUP3 MSTORE POP POP JUMP JUMPDEST PUSH1 0x0 PUSH1 0x20 DUP3 ADD SWAP1 POP PUSH2 0x10B PUSH1 0x0 DUP4 ADD DUP5 PUSH2 0xE7 JUMP JUMPDEST SWAP3 SWAP2 POP POP JUMP JUMPDEST PUSH1 0x0 PUSH2 0x11C DUP3 PUSH2 0x239 JUMP JUMPDEST SWAP2 POP PUSH2 0x127 DUP4 PUSH2 0x239 JUMP JUMPDEST SWAP3 POP DUP2 PUSH32 0x7FFFFFFFFFFFFFFFFFFFFFFFFFFFFFFFFFFFFFFFFFFFFFFFFFFFFFFFFFFFFFFF SUB DUP4 SGT PUSH1 0x0 DUP4 SLT ISZERO AND ISZERO PUSH2 0x162 JUMPI PUSH2 0x161 PUSH2 0x243 JUMP JUMPDEST JUMPDEST DUP2 PUSH32 0x8000000000000000000000000000000000000000000000000000000000000000 SUB DUP4 SLT PUSH1 0x0 DUP4 SLT AND ISZERO PUSH2 0x19A JUMPI PUSH2 0x199 PUSH2 0x243 JUMP JUMPDEST JUMPDEST DUP3 DUP3 ADD SWAP1 POP SWAP3 SWAP2 POP POP JUMP JUMPDEST PUSH1 0x0 PUSH2 0x1B0 DUP3 PUSH2 0x239 JUMP JUMPDEST SWAP2 POP PUSH2 0x1BB DUP4 PUSH2 0x239 JUMP JUMPDEST SWAP3 POP DUP3 PUSH32 0x8000000000000000000000000000000000000000000000000000000000000000 ADD DUP3 SLT PUSH1 0x0 DUP5 SLT ISZERO AND ISZERO PUSH2 0x1F6 JUMPI PUSH2 0x1F5 PUSH2 0x243 JUMP JUMPDEST JUMPDEST DUP3 PUSH32 0x7FFFFFFFFFFFFFFFFFFFFFFFFFFFFFFFFFFFFFFFFFFFFFFFFFFFFFFFFFFFFFFF ADD DUP3 SGT PUSH1 0x0 DUP5 SLT AND ISZERO PUSH2 0x22E JUMPI PUSH2 0x22D PUSH2 0x243 JUMP JUMPDEST JUMPDEST DUP3 DUP3 SUB SWAP1 POP SWAP3 SWAP2 POP POP JUMP JUMPDEST PUSH1 0x0 DUP2 SWAP1 POP SWAP2 SWAP1 POP JUMP JUMPDEST PUSH32 0x4E487B7100000000000000000000000000000000000000000000000000000000 PUSH1 0x0 MSTORE PUSH1 0x11 PUSH1 0x4 MSTORE PUSH1 0x24 PUSH1 0x0 REVERT INVALID LOG2 PUSH5 0x6970667358 0x22 SLT KECCAK256 PUSH18 0xD644CEF50F50275E95A04D38FCF1547CC919 0xC1 DUP11 CREATE2 0x1F PUSH30 0xF1A985F0F839803C64736F6C634300080700330000000000000000000000 "
				},
				"gasEstimates": {
					"creation": {
						"codeDepositCost": "136000",
						"executionCost": "infinite",
						"totalCost": "infinite"
					},
					"external": {
						"Profit()": "2451",
						"buy()": "infinite",
						"refund()": "infinite",
						"viewProfits()": "2415"
					}
				},
				"methodIdentifiers": {
					"Profit()": "699e5b6d",
					"buy()": "a6f2ae3a",
					"refund()": "590e1ae3",
					"viewProfits()": "438e65cf"
				}
			},
			"storageLayout": {
				"storage": [
					{
						"astId": 3,
						"contract": "contracts/notbitcoin.sol:notbitcoin",
						"label": "notbitcoin",
						"offset": 0,
						"slot": "0",
						"type": "t_string_storage"
					},
					{
						"astId": 5,
						"contract": "contracts/notbitcoin.sol:notbitcoin",
						"label": "Profit",
						"offset": 0,
						"slot": "1",
						"type": "t_int256"
					}
				],
				"types": {
					"t_int256": {
						"encoding": "inplace",
						"label": "int256",
						"numberOfBytes": "32"
					},
					"t_string_storage": {
						"encoding": "bytes",
						"label": "string",
						"numberOfBytes": "32"
					}
				}
			},
			"userdoc": {
				"kind": "user",
				"methods": {},
				"version": 1
			}
		}
	}
}