{
	"contracts/notbitcoin.sol": {
		"notbitcoin": {
			"abi": [
				{
					"inputs": [
						{
							"internalType": "int256",
							"name": "userImput",
							"type": "int256"
						}
					],
					"stateMutability": "nonpayable",
					"type": "constructor"
				},
				{
					"inputs": [],
					"name": "Profit",
					"outputs": [
						{
							"internalType": "int256",
							"name": "",
							"type": "int256"
						}
					],
					"stateMutability": "view",
					"type": "function"
				},
				{
					"inputs": [],
					"name": "buy",
					"outputs": [],
					"stateMutability": "nonpayable",
					"type": "function"
				},
				{
					"inputs": [],
					"name": "discountUp",
					"outputs": [],
					"stateMutability": "nonpayable",
					"type": "function"
				},
				{
					"inputs": [],
					"name": "refund",
					"outputs": [],
					"stateMutability": "nonpayable",
					"type": "function"
				},
				{
					"inputs": [],
					"name": "viewProfits",
					"outputs": [
						{
							"internalType": "int256",
							"name": "",
							"type": "int256"
						}
					],
					"stateMutability": "view",
					"type": "function"
				}
			],
			"devdoc": {
				"kind": "dev",
				"methods": {},
				"version": 1
			},
			"evm": {
				"assembly": "    /* \"contracts/notbitcoin.sol\":34:412  contract notbitcoin {... */\n  mstore(0x40, 0x80)\n    /* \"contracts/notbitcoin.sol\":85:147  constructor(int userImput) {... */\n  callvalue\n  dup1\n  iszero\n  tag_1\n  jumpi\n  0x00\n  dup1\n  revert\ntag_1:\n  pop\n  mload(0x40)\n  sub(codesize, bytecodeSize)\n  dup1\n  bytecodeSize\n  dup4\n  codecopy\n  dup2\n  dup2\n  add\n  0x40\n  mstore\n  dup2\n  add\n  swap1\n  tag_2\n  swap2\n  swap1\n  tag_3\n  jump\t// in\ntag_2:\n    /* \"contracts/notbitcoin.sol\":131:140  userImput */\n  dup1\n    /* \"contracts/notbitcoin.sol\":122:128  Profit */\n  0x00\n    /* \"contracts/notbitcoin.sol\":122:140  Profit = userImput */\n  dup2\n  swap1\n  sstore\n  pop\n    /* \"contracts/notbitcoin.sol\":85:147  constructor(int userImput) {... */\n  pop\n    /* \"contracts/notbitcoin.sol\":34:412  contract notbitcoin {... */\n  jump(tag_6)\n    /* \"#utility.yul\":7:148   */\ntag_8:\n    /* \"#utility.yul\":63:68   */\n  0x00\n    /* \"#utility.yul\":94:100   */\n  dup2\n    /* \"#utility.yul\":88:101   */\n  mload\n    /* \"#utility.yul\":79:101   */\n  swap1\n  pop\n    /* \"#utility.yul\":110:142   */\n  tag_10\n    /* \"#utility.yul\":136:141   */\n  dup2\n    /* \"#utility.yul\":110:142   */\n  tag_11\n  jump\t// in\ntag_10:\n    /* \"#utility.yul\":7:148   */\n  swap3\n  swap2\n  pop\n  pop\n  jump\t// out\n    /* \"#utility.yul\":154:503   */\ntag_3:\n    /* \"#utility.yul\":223:229   */\n  0x00\n    /* \"#utility.yul\":272:274   */\n  0x20\n    /* \"#utility.yul\":260:269   */\n  dup3\n    /* \"#utility.yul\":251:258   */\n  dup5\n    /* \"#utility.yul\":247:270   */\n  sub\n    /* \"#utility.yul\":243:275   */\n  slt\n    /* \"#utility.yul\":240:359   */\n  iszero\n  tag_13\n  jumpi\n    /* \"#utility.yul\":278:357   */\n  tag_14\n  tag_15\n  jump\t// in\ntag_14:\n    /* \"#utility.yul\":240:359   */\ntag_13:\n    /* \"#utility.yul\":398:399   */\n  0x00\n    /* \"#utility.yul\":423:486   */\n  tag_16\n    /* \"#utility.yul\":478:485   */\n  dup5\n    /* \"#utility.yul\":469:475   */\n  dup3\n    /* \"#utility.yul\":458:467   */\n  dup6\n    /* \"#utility.yul\":454:476   */\n  add\n    /* \"#utility.yul\":423:486   */\n  tag_8\n  jump\t// in\ntag_16:\n    /* \"#utility.yul\":413:486   */\n  swap2\n  pop\n    /* \"#utility.yul\":369:496   */\n  pop\n    /* \"#utility.yul\":154:503   */\n  swap3\n  swap2\n  pop\n  pop\n  jump\t// out\n    /* \"#utility.yul\":590:666   */\ntag_19:\n    /* \"#utility.yul\":626:633   */\n  0x00\n    /* \"#utility.yul\":655:660   */\n  dup2\n    /* \"#utility.yul\":644:660   */\n  swap1\n  pop\n    /* \"#utility.yul\":590:666   */\n  swap2\n  swap1\n  pop\n  jump\t// out\n    /* \"#utility.yul\":795:912   */\ntag_15:\n    /* \"#utility.yul\":904:905   */\n  0x00\n    /* \"#utility.yul\":901:902   */\n  dup1\n    /* \"#utility.yul\":894:906   */\n  revert\n    /* \"#utility.yul\":918:1038   */\ntag_11:\n    /* \"#utility.yul\":990:1013   */\n  tag_25\n    /* \"#utility.yul\":1007:1012   */\n  dup2\n    /* \"#utility.yul\":990:1013   */\n  tag_19\n  jump\t// in\ntag_25:\n    /* \"#utility.yul\":983:988   */\n  dup2\n    /* \"#utility.yul\":980:1014   */\n  eq\n    /* \"#utility.yul\":970:1032   */\n  tag_26\n  jumpi\n    /* \"#utility.yul\":1028:1029   */\n  0x00\n    /* \"#utility.yul\":1025:1026   */\n  dup1\n    /* \"#utility.yul\":1018:1030   */\n  revert\n    /* \"#utility.yul\":970:1032   */\ntag_26:\n    /* \"#utility.yul\":918:1038   */\n  pop\n  jump\t// out\n    /* \"contracts/notbitcoin.sol\":34:412  contract notbitcoin {... */\ntag_6:\n  dataSize(sub_0)\n  dup1\n  dataOffset(sub_0)\n  0x00\n  codecopy\n  0x00\n  return\nstop\n\nsub_0: assembly {\n        /* \"contracts/notbitcoin.sol\":34:412  contract notbitcoin {... */\n      mstore(0x40, 0x80)\n      callvalue\n      dup1\n      iszero\n      tag_1\n      jumpi\n      0x00\n      dup1\n      revert\n    tag_1:\n      pop\n      jumpi(tag_2, lt(calldatasize, 0x04))\n      shr(0xe0, calldataload(0x00))\n      dup1\n      0x438e65cf\n      eq\n      tag_3\n      jumpi\n      dup1\n      0x590e1ae3\n      eq\n      tag_4\n      jumpi\n      dup1\n      0x699e5b6d\n      eq\n      tag_5\n      jumpi\n      dup1\n      0x8f29b1c7\n      eq\n      tag_6\n      jumpi\n      dup1\n      0xa6f2ae3a\n      eq\n      tag_7\n      jumpi\n    tag_2:\n      0x00\n      dup1\n      revert\n        /* \"contracts/notbitcoin.sol\":153:227  function viewProfits() public view returns (int){... */\n    tag_3:\n      tag_8\n      tag_9\n      jump\t// in\n    tag_8:\n      mload(0x40)\n      tag_10\n      swap2\n      swap1\n      tag_11\n      jump\t// in\n    tag_10:\n      mload(0x40)\n      dup1\n      swap2\n      sub\n      swap1\n      return\n        /* \"contracts/notbitcoin.sol\":290:344  function refund() public {... */\n    tag_4:\n      tag_12\n      tag_13\n      jump\t// in\n    tag_12:\n      stop\n        /* \"contracts/notbitcoin.sol\":61:78  int public Profit */\n    tag_5:\n      tag_14\n      tag_15\n      jump\t// in\n    tag_14:\n      mload(0x40)\n      tag_16\n      swap2\n      swap1\n      tag_11\n      jump\t// in\n    tag_16:\n      mload(0x40)\n      dup1\n      swap2\n      sub\n      swap1\n      return\n        /* \"contracts/notbitcoin.sol\":352:410  function discountUp() public {... */\n    tag_6:\n      tag_17\n      tag_18\n      jump\t// in\n    tag_17:\n      stop\n        /* \"contracts/notbitcoin.sol\":233:283  function buy() public {... */\n    tag_7:\n      tag_19\n      tag_20\n      jump\t// in\n    tag_19:\n      stop\n        /* \"contracts/notbitcoin.sol\":153:227  function viewProfits() public view returns (int){... */\n    tag_9:\n        /* \"contracts/notbitcoin.sol\":197:200  int */\n      0x00\n        /* \"contracts/notbitcoin.sol\":216:222  Profit */\n      dup1\n      sload\n        /* \"contracts/notbitcoin.sol\":209:222  return Profit */\n      swap1\n      pop\n        /* \"contracts/notbitcoin.sol\":153:227  function viewProfits() public view returns (int){... */\n      swap1\n      jump\t// out\n        /* \"contracts/notbitcoin.sol\":290:344  function refund() public {... */\n    tag_13:\n        /* \"contracts/notbitcoin.sol\":336:337  1 */\n      0x01\n        /* \"contracts/notbitcoin.sol\":326:332  Profit */\n      0x00\n      dup1\n        /* \"contracts/notbitcoin.sol\":326:337  Profit -= 1 */\n      dup3\n      dup3\n      sload\n      tag_23\n      swap2\n      swap1\n      tag_24\n      jump\t// in\n    tag_23:\n      swap3\n      pop\n      pop\n      dup2\n      swap1\n      sstore\n      pop\n        /* \"contracts/notbitcoin.sol\":290:344  function refund() public {... */\n      jump\t// out\n        /* \"contracts/notbitcoin.sol\":61:78  int public Profit */\n    tag_15:\n      sload(0x00)\n      dup2\n      jump\t// out\n        /* \"contracts/notbitcoin.sol\":352:410  function discountUp() public {... */\n    tag_18:\n        /* \"contracts/notbitcoin.sol\":401:403  15 */\n      0x0f\n        /* \"contracts/notbitcoin.sol\":391:397  Profit */\n      0x00\n      dup1\n        /* \"contracts/notbitcoin.sol\":391:403  Profit /= 15 */\n      dup3\n      dup3\n      sload\n      tag_26\n      swap2\n      swap1\n      tag_27\n      jump\t// in\n    tag_26:\n      swap3\n      pop\n      pop\n      dup2\n      swap1\n      sstore\n      pop\n        /* \"contracts/notbitcoin.sol\":352:410  function discountUp() public {... */\n      jump\t// out\n        /* \"contracts/notbitcoin.sol\":233:283  function buy() public {... */\n    tag_20:\n        /* \"contracts/notbitcoin.sol\":275:276  1 */\n      0x01\n        /* \"contracts/notbitcoin.sol\":265:271  Profit */\n      0x00\n      dup1\n        /* \"contracts/notbitcoin.sol\":265:276  Profit += 1 */\n      dup3\n      dup3\n      sload\n      tag_29\n      swap2\n      swap1\n      tag_30\n      jump\t// in\n    tag_29:\n      swap3\n      pop\n      pop\n      dup2\n      swap1\n      sstore\n      pop\n        /* \"contracts/notbitcoin.sol\":233:283  function buy() public {... */\n      jump\t// out\n        /* \"#utility.yul\":7:122   */\n    tag_32:\n        /* \"#utility.yul\":92:115   */\n      tag_34\n        /* \"#utility.yul\":109:114   */\n      dup2\n        /* \"#utility.yul\":92:115   */\n      tag_35\n      jump\t// in\n    tag_34:\n        /* \"#utility.yul\":87:90   */\n      dup3\n        /* \"#utility.yul\":80:116   */\n      mstore\n        /* \"#utility.yul\":7:122   */\n      pop\n      pop\n      jump\t// out\n        /* \"#utility.yul\":128:346   */\n    tag_11:\n        /* \"#utility.yul\":219:223   */\n      0x00\n        /* \"#utility.yul\":257:259   */\n      0x20\n        /* \"#utility.yul\":246:255   */\n      dup3\n        /* \"#utility.yul\":242:260   */\n      add\n        /* \"#utility.yul\":234:260   */\n      swap1\n      pop\n        /* \"#utility.yul\":270:339   */\n      tag_37\n        /* \"#utility.yul\":336:337   */\n      0x00\n        /* \"#utility.yul\":325:334   */\n      dup4\n        /* \"#utility.yul\":321:338   */\n      add\n        /* \"#utility.yul\":312:318   */\n      dup5\n        /* \"#utility.yul\":270:339   */\n      tag_32\n      jump\t// in\n    tag_37:\n        /* \"#utility.yul\":128:346   */\n      swap3\n      swap2\n      pop\n      pop\n      jump\t// out\n        /* \"#utility.yul\":352:877   */\n    tag_30:\n        /* \"#utility.yul\":391:394   */\n      0x00\n        /* \"#utility.yul\":410:429   */\n      tag_39\n        /* \"#utility.yul\":427:428   */\n      dup3\n        /* \"#utility.yul\":410:429   */\n      tag_35\n      jump\t// in\n    tag_39:\n        /* \"#utility.yul\":405:429   */\n      swap2\n      pop\n        /* \"#utility.yul\":443:462   */\n      tag_40\n        /* \"#utility.yul\":460:461   */\n      dup4\n        /* \"#utility.yul\":443:462   */\n      tag_35\n      jump\t// in\n    tag_40:\n        /* \"#utility.yul\":438:462   */\n      swap3\n      pop\n        /* \"#utility.yul\":631:632   */\n      dup2\n        /* \"#utility.yul\":563:629   */\n      0x7fffffffffffffffffffffffffffffffffffffffffffffffffffffffffffffff\n        /* \"#utility.yul\":559:633   */\n      sub\n        /* \"#utility.yul\":556:557   */\n      dup4\n        /* \"#utility.yul\":552:634   */\n      sgt\n        /* \"#utility.yul\":547:548   */\n      0x00\n        /* \"#utility.yul\":544:545   */\n      dup4\n        /* \"#utility.yul\":540:549   */\n      slt\n        /* \"#utility.yul\":533:550   */\n      iszero\n        /* \"#utility.yul\":529:635   */\n      and\n        /* \"#utility.yul\":526:658   */\n      iszero\n      tag_41\n      jumpi\n        /* \"#utility.yul\":638:656   */\n      tag_42\n      tag_43\n      jump\t// in\n    tag_42:\n        /* \"#utility.yul\":526:658   */\n    tag_41:\n        /* \"#utility.yul\":818:819   */\n      dup2\n        /* \"#utility.yul\":750:816   */\n      0x8000000000000000000000000000000000000000000000000000000000000000\n        /* \"#utility.yul\":746:820   */\n      sub\n        /* \"#utility.yul\":743:744   */\n      dup4\n        /* \"#utility.yul\":739:821   */\n      slt\n        /* \"#utility.yul\":735:736   */\n      0x00\n        /* \"#utility.yul\":732:733   */\n      dup4\n        /* \"#utility.yul\":728:737   */\n      slt\n        /* \"#utility.yul\":724:822   */\n      and\n        /* \"#utility.yul\":721:845   */\n      iszero\n      tag_44\n      jumpi\n        /* \"#utility.yul\":825:843   */\n      tag_45\n      tag_43\n      jump\t// in\n    tag_45:\n        /* \"#utility.yul\":721:845   */\n    tag_44:\n        /* \"#utility.yul\":869:870   */\n      dup3\n        /* \"#utility.yul\":866:867   */\n      dup3\n        /* \"#utility.yul\":862:871   */\n      add\n        /* \"#utility.yul\":855:871   */\n      swap1\n      pop\n        /* \"#utility.yul\":352:877   */\n      swap3\n      swap2\n      pop\n      pop\n      jump\t// out\n        /* \"#utility.yul\":883:1268   */\n    tag_27:\n        /* \"#utility.yul\":922:923   */\n      0x00\n        /* \"#utility.yul\":939:958   */\n      tag_47\n        /* \"#utility.yul\":956:957   */\n      dup3\n        /* \"#utility.yul\":939:958   */\n      tag_35\n      jump\t// in\n    tag_47:\n        /* \"#utility.yul\":934:958   */\n      swap2\n      pop\n        /* \"#utility.yul\":972:991   */\n      tag_48\n        /* \"#utility.yul\":989:990   */\n      dup4\n        /* \"#utility.yul\":972:991   */\n      tag_35\n      jump\t// in\n    tag_48:\n        /* \"#utility.yul\":967:991   */\n      swap3\n      pop\n        /* \"#utility.yul\":1010:1011   */\n      dup3\n        /* \"#utility.yul\":1000:1035   */\n      tag_49\n      jumpi\n        /* \"#utility.yul\":1015:1033   */\n      tag_50\n      tag_51\n      jump\t// in\n    tag_50:\n        /* \"#utility.yul\":1000:1035   */\n    tag_49:\n        /* \"#utility.yul\":1201:1202   */\n      0x01\n        /* \"#utility.yul\":1198:1199   */\n      0x00\n        /* \"#utility.yul\":1194:1203   */\n      sub\n        /* \"#utility.yul\":1191:1192   */\n      dup4\n        /* \"#utility.yul\":1188:1204   */\n      eq\n        /* \"#utility.yul\":1107:1173   */\n      0x8000000000000000000000000000000000000000000000000000000000000000\n        /* \"#utility.yul\":1104:1105   */\n      dup4\n        /* \"#utility.yul\":1101:1174   */\n      eq\n        /* \"#utility.yul\":1084:1214   */\n      and\n        /* \"#utility.yul\":1081:1237   */\n      iszero\n      tag_52\n      jumpi\n        /* \"#utility.yul\":1217:1235   */\n      tag_53\n      tag_43\n      jump\t// in\n    tag_53:\n        /* \"#utility.yul\":1081:1237   */\n    tag_52:\n        /* \"#utility.yul\":1260:1261   */\n      dup3\n        /* \"#utility.yul\":1257:1258   */\n      dup3\n        /* \"#utility.yul\":1252:1262   */\n      sdiv\n        /* \"#utility.yul\":1247:1262   */\n      swap1\n      pop\n        /* \"#utility.yul\":883:1268   */\n      swap3\n      swap2\n      pop\n      pop\n      jump\t// out\n        /* \"#utility.yul\":1274:1801   */\n    tag_24:\n        /* \"#utility.yul\":1313:1317   */\n      0x00\n        /* \"#utility.yul\":1333:1352   */\n      tag_55\n        /* \"#utility.yul\":1350:1351   */\n      dup3\n        /* \"#utility.yul\":1333:1352   */\n      tag_35\n      jump\t// in\n    tag_55:\n        /* \"#utility.yul\":1328:1352   */\n      swap2\n      pop\n        /* \"#utility.yul\":1366:1385   */\n      tag_56\n        /* \"#utility.yul\":1383:1384   */\n      dup4\n        /* \"#utility.yul\":1366:1385   */\n      tag_35\n      jump\t// in\n    tag_56:\n        /* \"#utility.yul\":1361:1385   */\n      swap3\n      pop\n        /* \"#utility.yul\":1555:1556   */\n      dup3\n        /* \"#utility.yul\":1487:1553   */\n      0x8000000000000000000000000000000000000000000000000000000000000000\n        /* \"#utility.yul\":1483:1557   */\n      add\n        /* \"#utility.yul\":1480:1481   */\n      dup3\n        /* \"#utility.yul\":1476:1558   */\n      slt\n        /* \"#utility.yul\":1471:1472   */\n      0x00\n        /* \"#utility.yul\":1468:1469   */\n      dup5\n        /* \"#utility.yul\":1464:1473   */\n      slt\n        /* \"#utility.yul\":1457:1474   */\n      iszero\n        /* \"#utility.yul\":1453:1559   */\n      and\n        /* \"#utility.yul\":1450:1582   */\n      iszero\n      tag_57\n      jumpi\n        /* \"#utility.yul\":1562:1580   */\n      tag_58\n      tag_43\n      jump\t// in\n    tag_58:\n        /* \"#utility.yul\":1450:1582   */\n    tag_57:\n        /* \"#utility.yul\":1741:1742   */\n      dup3\n        /* \"#utility.yul\":1673:1739   */\n      0x7fffffffffffffffffffffffffffffffffffffffffffffffffffffffffffffff\n        /* \"#utility.yul\":1669:1743   */\n      add\n        /* \"#utility.yul\":1666:1667   */\n      dup3\n        /* \"#utility.yul\":1662:1744   */\n      sgt\n        /* \"#utility.yul\":1658:1659   */\n      0x00\n        /* \"#utility.yul\":1655:1656   */\n      dup5\n        /* \"#utility.yul\":1651:1660   */\n      slt\n        /* \"#utility.yul\":1647:1745   */\n      and\n        /* \"#utility.yul\":1644:1768   */\n      iszero\n      tag_59\n      jumpi\n        /* \"#utility.yul\":1748:1766   */\n      tag_60\n      tag_43\n      jump\t// in\n    tag_60:\n        /* \"#utility.yul\":1644:1768   */\n    tag_59:\n        /* \"#utility.yul\":1793:1794   */\n      dup3\n        /* \"#utility.yul\":1790:1791   */\n      dup3\n        /* \"#utility.yul\":1786:1795   */\n      sub\n        /* \"#utility.yul\":1778:1795   */\n      swap1\n      pop\n        /* \"#utility.yul\":1274:1801   */\n      swap3\n      swap2\n      pop\n      pop\n      jump\t// out\n        /* \"#utility.yul\":1807:1883   */\n    tag_35:\n        /* \"#utility.yul\":1843:1850   */\n      0x00\n        /* \"#utility.yul\":1872:1877   */\n      dup2\n        /* \"#utility.yul\":1861:1877   */\n      swap1\n      pop\n        /* \"#utility.yul\":1807:1883   */\n      swap2\n      swap1\n      pop\n      jump\t// out\n        /* \"#utility.yul\":1889:2069   */\n    tag_43:\n        /* \"#utility.yul\":1937:2014   */\n      0x4e487b7100000000000000000000000000000000000000000000000000000000\n        /* \"#utility.yul\":1934:1935   */\n      0x00\n        /* \"#utility.yul\":1927:2015   */\n      mstore\n        /* \"#utility.yul\":2034:2038   */\n      0x11\n        /* \"#utility.yul\":2031:2032   */\n      0x04\n        /* \"#utility.yul\":2024:2039   */\n      mstore\n        /* \"#utility.yul\":2058:2062   */\n      0x24\n        /* \"#utility.yul\":2055:2056   */\n      0x00\n        /* \"#utility.yul\":2048:2063   */\n      revert\n        /* \"#utility.yul\":2075:2255   */\n    tag_51:\n        /* \"#utility.yul\":2123:2200   */\n      0x4e487b7100000000000000000000000000000000000000000000000000000000\n        /* \"#utility.yul\":2120:2121   */\n      0x00\n        /* \"#utility.yul\":2113:2201   */\n      mstore\n        /* \"#utility.yul\":2220:2224   */\n      0x12\n        /* \"#utility.yul\":2217:2218   */\n      0x04\n        /* \"#utility.yul\":2210:2225   */\n      mstore\n        /* \"#utility.yul\":2244:2248   */\n      0x24\n        /* \"#utility.yul\":2241:2242   */\n      0x00\n        /* \"#utility.yul\":2234:2249   */\n      revert\n\n    auxdata: 0xa2646970667358221220e8de404312348c662a5e65caade791f569eaa59c1eb4e365734e4cb9e7b7c06a64736f6c63430008070033\n}\n",
				"bytecode": {
					"linkReferences": {},
					"object": "608060405234801561001057600080fd5b5060405161042638038061042683398181016040528101906100329190610054565b80600081905550506100a7565b60008151905061004e81610090565b92915050565b60006020828403121561006a5761006961008b565b5b60006100788482850161003f565b91505092915050565b6000819050919050565b600080fd5b61009981610081565b81146100a457600080fd5b50565b610370806100b66000396000f3fe608060405234801561001057600080fd5b50600436106100575760003560e01c8063438e65cf1461005c578063590e1ae31461007a578063699e5b6d146100845780638f29b1c7146100a2578063a6f2ae3a146100ac575b600080fd5b6100646100b6565b6040516100719190610125565b60405180910390f35b6100826100bf565b005b61008c6100da565b6040516100999190610125565b60405180910390f35b6100aa6100e0565b005b6100b46100fb565b005b60008054905090565b60016000808282546100d1919061023e565b92505081905550565b60005481565b600f6000808282546100f291906101d4565b92505081905550565b600160008082825461010d9190610140565b92505081905550565b61011f816102d2565b82525050565b600060208201905061013a6000830184610116565b92915050565b600061014b826102d2565b9150610156836102d2565b9250817f7fffffffffffffffffffffffffffffffffffffffffffffffffffffffffffffff03831360008312151615610191576101906102dc565b5b817f80000000000000000000000000000000000000000000000000000000000000000383126000831216156101c9576101c86102dc565b5b828201905092915050565b60006101df826102d2565b91506101ea836102d2565b9250826101fa576101f961030b565b5b600160000383147f800000000000000000000000000000000000000000000000000000000000000083141615610233576102326102dc565b5b828205905092915050565b6000610249826102d2565b9150610254836102d2565b9250827f80000000000000000000000000000000000000000000000000000000000000000182126000841215161561028f5761028e6102dc565b5b827f7fffffffffffffffffffffffffffffffffffffffffffffffffffffffffffffff0182136000841216156102c7576102c66102dc565b5b828203905092915050565b6000819050919050565b7f4e487b7100000000000000000000000000000000000000000000000000000000600052601160045260246000fd5b7f4e487b7100000000000000000000000000000000000000000000000000000000600052601260045260246000fdfea2646970667358221220e8de404312348c662a5e65caade791f569eaa59c1eb4e365734e4cb9e7b7c06a64736f6c63430008070033",
					"opcodes": "PUSH1 0x80 PUSH1 0x40 MSTORE CALLVALUE DUP1 ISZERO PUSH2 0x10 JUMPI PUSH1 0x0 DUP1 REVERT JUMPDEST POP PUSH1 0x40 MLOAD PUSH2 0x426 CODESIZE SUB DUP1 PUSH2 0x426 DUP4 CODECOPY DUP2 DUP2 ADD PUSH1 0x40 MSTORE DUP2 ADD SWAP1 PUSH2 0x32 SWAP2 SWAP1 PUSH2 0x54 JUMP JUMPDEST DUP1 PUSH1 0x0 DUP2 SWAP1 SSTORE POP POP PUSH2 0xA7 JUMP JUMPDEST PUSH1 0x0 DUP2 MLOAD SWAP1 POP PUSH2 0x4E DUP2 PUSH2 0x90 JUMP JUMPDEST SWAP3 SWAP2 POP POP JUMP JUMPDEST PUSH1 0x0 PUSH1 0x20 DUP3 DUP5 SUB SLT ISZERO PUSH2 0x6A JUMPI PUSH2 0x69 PUSH2 0x8B JUMP JUMPDEST JUMPDEST PUSH1 0x0 PUSH2 0x78 DUP5 DUP3 DUP6 ADD PUSH2 0x3F JUMP JUMPDEST SWAP2 POP POP SWAP3 SWAP2 POP POP JUMP JUMPDEST PUSH1 0x0 DUP2 SWAP1 POP SWAP2 SWAP1 POP JUMP JUMPDEST PUSH1 0x0 DUP1 REVERT JUMPDEST PUSH2 0x99 DUP2 PUSH2 0x81 JUMP JUMPDEST DUP2 EQ PUSH2 0xA4 JUMPI PUSH1 0x0 DUP1 REVERT JUMPDEST POP JUMP JUMPDEST PUSH2 0x370 DUP1 PUSH2 0xB6 PUSH1 0x0 CODECOPY PUSH1 0x0 RETURN INVALID PUSH1 0x80 PUSH1 0x40 MSTORE CALLVALUE DUP1 ISZERO PUSH2 0x10 JUMPI PUSH1 0x0 DUP1 REVERT JUMPDEST POP PUSH1 0x4 CALLDATASIZE LT PUSH2 0x57 JUMPI PUSH1 0x0 CALLDATALOAD PUSH1 0xE0 SHR DUP1 PUSH4 0x438E65CF EQ PUSH2 0x5C JUMPI DUP1 PUSH4 0x590E1AE3 EQ PUSH2 0x7A JUMPI DUP1 PUSH4 0x699E5B6D EQ PUSH2 0x84 JUMPI DUP1 PUSH4 0x8F29B1C7 EQ PUSH2 0xA2 JUMPI DUP1 PUSH4 0xA6F2AE3A EQ PUSH2 0xAC JUMPI JUMPDEST PUSH1 0x0 DUP1 REVERT JUMPDEST PUSH2 0x64 PUSH2 0xB6 JUMP JUMPDEST PUSH1 0x40 MLOAD PUSH2 0x71 SWAP2 SWAP1 PUSH2 0x125 JUMP JUMPDEST PUSH1 0x40 MLOAD DUP1 SWAP2 SUB SWAP1 RETURN JUMPDEST PUSH2 0x82 PUSH2 0xBF JUMP JUMPDEST STOP JUMPDEST PUSH2 0x8C PUSH2 0xDA JUMP JUMPDEST PUSH1 0x40 MLOAD PUSH2 0x99 SWAP2 SWAP1 PUSH2 0x125 JUMP JUMPDEST PUSH1 0x40 MLOAD DUP1 SWAP2 SUB SWAP1 RETURN JUMPDEST PUSH2 0xAA PUSH2 0xE0 JUMP JUMPDEST STOP JUMPDEST PUSH2 0xB4 PUSH2 0xFB JUMP JUMPDEST STOP JUMPDEST PUSH1 0x0 DUP1 SLOAD SWAP1 POP SWAP1 JUMP JUMPDEST PUSH1 0x1 PUSH1 0x0 DUP1 DUP3 DUP3 SLOAD PUSH2 0xD1 SWAP2 SWAP1 PUSH2 0x23E JUMP JUMPDEST SWAP3 POP POP DUP2 SWAP1 SSTORE POP JUMP JUMPDEST PUSH1 0x0 SLOAD DUP2 JUMP JUMPDEST PUSH1 0xF PUSH1 0x0 DUP1 DUP3 DUP3 SLOAD PUSH2 0xF2 SWAP2 SWAP1 PUSH2 0x1D4 JUMP JUMPDEST SWAP3 POP POP DUP2 SWAP1 SSTORE POP JUMP JUMPDEST PUSH1 0x1 PUSH1 0x0 DUP1 DUP3 DUP3 SLOAD PUSH2 0x10D SWAP2 SWAP1 PUSH2 0x140 JUMP JUMPDEST SWAP3 POP POP DUP2 SWAP1 SSTORE POP JUMP JUMPDEST PUSH2 0x11F DUP2 PUSH2 0x2D2 JUMP JUMPDEST DUP3 MSTORE POP POP JUMP JUMPDEST PUSH1 0x0 PUSH1 0x20 DUP3 ADD SWAP1 POP PUSH2 0x13A PUSH1 0x0 DUP4 ADD DUP5 PUSH2 0x116 JUMP JUMPDEST SWAP3 SWAP2 POP POP JUMP JUMPDEST PUSH1 0x0 PUSH2 0x14B DUP3 PUSH2 0x2D2 JUMP JUMPDEST SWAP2 POP PUSH2 0x156 DUP4 PUSH2 0x2D2 JUMP JUMPDEST SWAP3 POP DUP2 PUSH32 0x7FFFFFFFFFFFFFFFFFFFFFFFFFFFFFFFFFFFFFFFFFFFFFFFFFFFFFFFFFFFFFFF SUB DUP4 SGT PUSH1 0x0 DUP4 SLT ISZERO AND ISZERO PUSH2 0x191 JUMPI PUSH2 0x190 PUSH2 0x2DC JUMP JUMPDEST JUMPDEST DUP2 PUSH32 0x8000000000000000000000000000000000000000000000000000000000000000 SUB DUP4 SLT PUSH1 0x0 DUP4 SLT AND ISZERO PUSH2 0x1C9 JUMPI PUSH2 0x1C8 PUSH2 0x2DC JUMP JUMPDEST JUMPDEST DUP3 DUP3 ADD SWAP1 POP SWAP3 SWAP2 POP POP JUMP JUMPDEST PUSH1 0x0 PUSH2 0x1DF DUP3 PUSH2 0x2D2 JUMP JUMPDEST SWAP2 POP PUSH2 0x1EA DUP4 PUSH2 0x2D2 JUMP JUMPDEST SWAP3 POP DUP3 PUSH2 0x1FA JUMPI PUSH2 0x1F9 PUSH2 0x30B JUMP JUMPDEST JUMPDEST PUSH1 0x1 PUSH1 0x0 SUB DUP4 EQ PUSH32 0x8000000000000000000000000000000000000000000000000000000000000000 DUP4 EQ AND ISZERO PUSH2 0x233 JUMPI PUSH2 0x232 PUSH2 0x2DC JUMP JUMPDEST JUMPDEST DUP3 DUP3 SDIV SWAP1 POP SWAP3 SWAP2 POP POP JUMP JUMPDEST PUSH1 0x0 PUSH2 0x249 DUP3 PUSH2 0x2D2 JUMP JUMPDEST SWAP2 POP PUSH2 0x254 DUP4 PUSH2 0x2D2 JUMP JUMPDEST SWAP3 POP DUP3 PUSH32 0x8000000000000000000000000000000000000000000000000000000000000000 ADD DUP3 SLT PUSH1 0x0 DUP5 SLT ISZERO AND ISZERO PUSH2 0x28F JUMPI PUSH2 0x28E PUSH2 0x2DC JUMP JUMPDEST JUMPDEST DUP3 PUSH32 0x7FFFFFFFFFFFFFFFFFFFFFFFFFFFFFFFFFFFFFFFFFFFFFFFFFFFFFFFFFFFFFFF ADD DUP3 SGT PUSH1 0x0 DUP5 SLT AND ISZERO PUSH2 0x2C7 JUMPI PUSH2 0x2C6 PUSH2 0x2DC JUMP JUMPDEST JUMPDEST DUP3 DUP3 SUB SWAP1 POP SWAP3 SWAP2 POP POP JUMP JUMPDEST PUSH1 0x0 DUP2 SWAP1 POP SWAP2 SWAP1 POP JUMP JUMPDEST PUSH32 0x4E487B7100000000000000000000000000000000000000000000000000000000 PUSH1 0x0 MSTORE PUSH1 0x11 PUSH1 0x4 MSTORE PUSH1 0x24 PUSH1 0x0 REVERT JUMPDEST PUSH32 0x4E487B7100000000000000000000000000000000000000000000000000000000 PUSH1 0x0 MSTORE PUSH1 0x12 PUSH1 0x4 MSTORE PUSH1 0x24 PUSH1 0x0 REVERT INVALID LOG2 PUSH5 0x6970667358 0x22 SLT KECCAK256 0xE8 0xDE BLOCKHASH NUMBER SLT CALLVALUE DUP13 PUSH7 0x2A5E65CAADE791 CREATE2 PUSH10 0xEAA59C1EB4E365734E4C 0xB9 0xE7 0xB7 0xC0 PUSH11 0x64736F6C63430008070033 "
				},
				"gasEstimates": {
					"creation": {
						"codeDepositCost": "176000",
						"executionCost": "infinite",
						"totalCost": "infinite"
					},
					"external": {
						"Profit()": "2451",
						"buy()": "infinite",
						"discountUp()": "infinite",
						"refund()": "infinite",
						"viewProfits()": "2415"
					}
				},
				"methodIdentifiers": {
					"Profit()": "699e5b6d",
					"buy()": "a6f2ae3a",
					"discountUp()": "8f29b1c7",
					"refund()": "590e1ae3",
					"viewProfits()": "438e65cf"
				}
			},
			"storageLayout": {
				"storage": [
					{
						"astId": 3,
						"contract": "contracts/notbitcoin.sol:notbitcoin",
						"label": "Profit",
						"offset": 0,
						"slot": "0",
						"type": "t_int256"
					}
				],
				"types": {
					"t_int256": {
						"encoding": "inplace",
						"label": "int256",
						"numberOfBytes": "32"
					}
				}
			},
			"userdoc": {
				"kind": "user",
				"methods": {},
				"version": 1
			}
		}
	}
}